:020000040800F2
:10000000B0070020CD010008D5010008D701000885
:10001000D9010008DB010008DD0100080000000034
:10002000000000000000000000000000DF010008E8
:10003000E1010008000000005B020008E501000883
:10004000E7010008E7010008E7010008E7010008F0
:10005000E7010008E7010008E7010008E7010008E0
:10006000E7010008E7010008E7010008E7010008D0
:10007000E7010008E7010008E7010008E7010008C0
:10008000E7010008E7010008E7010008E7010008B0
:10009000E7010008E7010008E7010008E7010008A0
:1000A000E7010008E7010008E7010008E701000890
:1000B000E7010008E7010008E7010008E701000880
:1000C000E7010008E7010008E7010008E701000870
:1000D000E701000825130008E7010008E701000810
:1000E000E7010008E7010008E7010008E701000850
:1000F000E7010008E7010008E7010008E701000840
:10010000E7010008E7010008E7010008E70100082F
:10011000E7010008E7010008E7010008E70100081F
:10012000E7010008E7010008E7010008E70100080F
:1001300000F002F800F03AF80AA090E8000C8244BF
:100140008344AAF10107DA4501D100F02FF8AFF29C
:10015000090EBAE80F0013F0010F18BFFB1A43F0A5
:10016000010318472816000048160000103A24BF63
:1001700078C878C1FAD8520724BF30C830C144BF0C
:1001800004680C607047000000230024002500264E
:10019000103A28BF78C1FBD8520728BF30C148BFEA
:1001A0000B6070471FB51FBD10B510BD00F092F871
:1001B0001146FFF7F7FF01F085FA00F0B0F803B43D
:1001C000FFF7F2FF03BC01F00CFA0000094880477A
:1001D00009480047FEE7FEE7FEE7FEE7FEE7FEE729
:1001E000FEE7FEE7FEE7FEE704480549054A064B41
:1001F00070470000C512000831010008B00100205E
:10020000B0070020B0030020B0030020EFF31080FF
:1002100072B6704780F310887047204C204D2560DF
:100220004FF0000484F309881E4C4FF0010525703F
:100230001D4C4FF08055256062B6FEE730B41A4C75
:100240004FF08055256030BC704730B4164C4FF0ED
:100250008055256030BC704700BF72B6EFF309804F
:1002600028B1203880E8F00F10490968086000B50F
:100270000F4880475DF804EB0E480F490A7802707A
:100280000A480E490A680260106890E8F00F2030B2
:1002900080F309884EF0040E62B6704720ED00E04E
:1002A0000000FFFF5A00002004ED00E06000002085
:1002B0005D1000084F000020500000206800002062
:1002C000704770477047704770470000004870479C
:1002D000500100207546FFF7F9FFAE46050069465C
:1002E000534620F00700854618B020B5FFF77CFF85
:1002F000BDE820404FF000064FF000074FF0000827
:100300004FF0000B21F00701AC46ACE8C009ACE8A7
:10031000C009ACE8C009ACE8C0098D46704710B50B
:100320000446AFF300802046BDE81040FFF747BF0A
:1003300010B500F043F910BD70B504460E4600F04C
:100340008BF92546E11704EB11610912A02202EB9B
:100350004101C8B200F04CF900F0CAF9E11704EB12
:1003600011610912A4EB0121C8B200F041F900F0BB
:10037000BFF9304600F03CF900F0BAF900F092F90C
:100380000A2001F053F970BD51B18200A2F1C042C0
:10039000126842F001038200A2F1C042136009E03A
:1003A0008200A2F1C0421268034B1A408300A3F1FD
:1003B000C0431A6070470000FEFF0F00D0E9011231
:1003C0001143C268114302691143426911438269B2
:1003D0001143C2691143026A1143426A1143826A9E
:1003E0001143C26A1143026B114302689200A2F1E9
:1003F000C0421160816808290BD101688900A1F110
:10040000C041096841F0400201688900A1F1C04182
:100410000A60416B0968426B526841EA0211426B03
:10042000926841EA0221426B928941EA0241426BA1
:10043000128A41EA0251426B127D41EA0261426B2B
:10044000926911430268521C9200A2F1C0421160ED
:10045000C16AB1F5804F1BD1816B0968826B52680C
:1004600041EA0211826B926841EA0221826B128A90
:1004700041EA0251826B127D41EA0261826B92690C
:10048000114302689200A2F1C042C2F8041107E0D1
:100490006FF0704201688900A1F1C041C1F80421E8
:1004A00070472DE9F0410246002500260020002378
:1004B0000024002791F803C00CF00F0591F803C049
:1004C0000CF0100CBCF1000F03D091F802C04CEA04
:1004D000050591F800C0BCF1000F31D01468002070
:1004E0002BE04FF0010C0CFA00F3B1F800C00CEA5D
:1004F00003069E4220D183004FF00F0C0CFA03F745
:10050000BC4305FA03FC4CEA040491F803C0BCF1B7
:10051000280F06D14FF0010C0CFA00FCC2F814C0F1
:100520000AE091F803C0BCF1480F05D14FF0010C6F
:100530000CFA00FCC2F810C0401C0828D1D314608B
:10054000B1F800C0BCF1FF0F34DD546800202EE08C
:1005500000F1080C4FF0010808FA0CF3B1F800C0E4
:100560000CEA03069E4221D183004FF00F0C0CFAD7
:1005700003F7BC4305FA03FC4CEA040491F803C0FA
:10058000BCF1280F05D100F1080C08FA0CF8C2F8EC
:10059000148091F803C0BCF1480F07D100F1080C9A
:1005A0004FF0010808FA0CF8C2F81080401C082827
:1005B000CED35460BDE8F0810161704708B50121D8
:1005C000082000F06DFDC020ADF8000010208DF86F
:1005D000030003208DF8020069460448FFF761FF1D
:1005E000C0210248FFF7E8FF08BD0000000C0140F1
:1005F00070B504461548006820F070401349086043
:100600000846006840F0405008600020104908602B
:10061000002517E0E0090E49091D08606006040E78
:10062000022001F029F801200A49C1F898010220AE
:1006300001F022F8002006490860022001F01CF8B1
:10064000681CC5B2082DE5DB70BD0000000C014040
:10065000988121420080214210B50F48006820F0A7
:1006600070400D4908600846006840F0405008603E
:1006700001200A4908600A49C1F89801042000F0E5
:10068000FBFF002005490860042000F0F5FF002072
:100690000349C1F8980110BD000C01409C81214222
:1006A0000080214210B50F48006820F070400D49CD
:1006B00008600846006840F04050086000200A4981
:1006C00008600A49C1F89C01042000F0D5FF012010
:1006D000054908600549C1F89C01042000F0CCFFE1
:1006E00010BD0000000C0140988121420080214291
:1006F00010B500241448006820F0704012490860CA
:100700000846006840F00040086001200F4908607A
:1007100000F0B2FF01200E49C1F8980100F0ACFFD3
:1007200007E0601CC4B2FA2C03DDFFF7BBFF012019
:1007300010BD0648803800680028F2D10349091F1F
:10074000086000BFF4E70000000C01409C812142DA
:100750000080214270B5044600260948058840887B
:1007600045430021084600F0EFFB00F02DFC00BFE0
:1007700002E004480480761CAE42FAD370BD00004B
:10078000440100200000FE6310B50446ECB90020CF
:100790001F498871F02008804FF4A07048800846F7
:1007A000808849F24131884207D12C201849C8710C
:1007B0002A2008722B20487226E022201449C87192
:1007C00020200872212048721EE0012C1CD101203B
:1007D0000F4988714FF4A0700880F02048800846C7
:1007E000808849F24131884207D12C200849C871DC
:1007F0002A2008722B20487206E022200449C87182
:100800002120087220204872002000F0FBFA10BD61
:100810004401002000B59FB00121080200F020FC37
:10082000012140F2691000F03BFC4020ADF8780057
:1008300010208DF87B0003208DF87A001EA9FE4859
:10084000FFF72FFE4CF6B370ADF8780018208DF846
:100850007B0003208DF87A001EA9F748FFF721FEE0
:100860004FF68070ADF8780018208DF87B000320DB
:100870008DF87A001EA9F148FFF713FE01200890B9
:10088000002009900F200A9000200B900C900D90F2
:100890000E90019002900320039000200490059098
:1008A000069007900F901090119010201290002049
:1008B000139015901490169017904FF48050189044
:1008C000002019904FF480401A9000201B9008A837
:1008D0001C9001A81D900FA8FFF770FD01210020BA
:1008E000FFF752FD322000F0A1FE0121002000F0B0
:1008F00075FB322000F09AFE002000F077FAD04914
:10090000888008468088FF280ADB084680884FF6E2
:10091000FF71884204D0CA488088B0F5134F4BD18C
:10092000D32000F04BFB00F05BFA00F059FA00F026
:1009300057FAC3498880084680884FF6FF7101EA5C
:100940000020BF49888000F04BFABD4989880843E0
:10095000BB4988800846808849F2413188421BD0D3
:10096000BF2000F02BFB00F03BFA00F039FA00F05A
:1009700037FA00F035FAB2498880084680884FF689
:10098000FF7101EA0020AE49888000F029FAAC49E5
:1009900089880843AA498880A948808849F241315A
:1009A000884209D0A648808846F60401884203D0D0
:1009B00049F24130A24988800120A2490860A0483C
:1009C000808849F2413188427ED1CF2000F0F6FA8A
:1009D000002000F0EDFAC12000F0EAFA302000F02B
:1009E000E7FAED2000F0EAFA642000F0E1FA0320D3
:1009F00000F0DEFA122000F0DBFA812000F0D8FAD5
:100A0000E82000F0DBFA852000F0D2FA102000F098
:100A1000CFFA7A2000F0CCFACB2000F0CFFA3920C0
:100A200000F0C6FA2C2000F0C3FA002000F0C0FA53
:100A3000342000F0BDFA022000F0BAFAF72000F0EE
:100A4000BDFA202000F0B4FAEA2000F0B7FA002046
:100A500000F0AEFA002000F0ABFAC02000F0AEFAD1
:100A60001B2000F0A5FAC12000F0A8FA012000F038
:100A70009FFAC52000F0A2FA302000F099FA302049
:100A800000F096FAC72000F099FAB72000F090FA2B
:100A9000362000F093FA482000F08AFA3A2000F05D
:100AA0008DFA552000F084FAB12000F087FA00207A
:100AB00000F07EFA1A2000F07BFAB62000F07EFAF1
:100AC0000A2000F075FA00E096E0A22000F070FA2B
:100AD000F22000F073FA002000F06AFA262000F0FD
:100AE0006DFA012000F064FAE02000F067FA0F20B0
:100AF00000F05EFA2A2000F05BFA282000F058FA95
:100B0000082000F055FA0E2000F052FA082000F0FC
:100B10004FFA542000F04CFAA92000F049FA432083
:100B200000F046FA0A2000F043FA0F2000F040FAE5
:100B3000002000F03DFA002000F03AFA002000F01A
:100B400037FA002000F034FAE12000F037FA0020F4
:100B500000F02EFA152000F02BFA172000F028FAEA
:100B6000072000F025FA112000F022FA062000F0FC
:100B70001FFA2B2000F01CFA562000F019FA3C2036
:100B800000F016FA052000F013FA102000F010FA19
:100B90000F2000F00DFA3F2000F00AFA3F2000F08D
:100BA00007FA0F2000F004FA2B2000F007FA0020CB
:100BB00000F0FEF9002000F0FBF9012000F0F8F948
:100BC0003F2000F0F5F92A2000F0F8F9002000F0AD
:100BD000EFF9002000F0ECF9002000F0E9F9EF2037
:100BE00000F0E6F9112000F0E9F9782000F01EFD90
:100BF000292000F0E3F9E4E01148808849F225312A
:100C00008842F8D147F6F001E52000F0E7F94FF40B
:100C10008071012000F0E2F94FF4E061022000F061
:100C2000DDF941F23001032000F0D8F90021042061
:100C300000F0D4F908E00000001401400018014061
:100C4000440100209881224240F20221082000F055
:100C5000C5F90021092000F0C1F900210A2000F0A7
:100C6000BDF900210C2000F0B9F900210D2000F0A1
:100C7000B5F900210F2000F0B1F90021102000F09B
:100C8000ADF90721112000F0A9F90021122000F090
:100C9000A5F90021132000F0A1F90021072000F0A0
:100CA0009DF941F29061102000F098F940F227215F
:100CB000112000F093F99D21122000F08FF94FF4DC
:100CC000C851132000F08AF92521292000F086F967
:100CD0000D212B2000F082F90721302000F07EF951
:100CE00040F20331312000F079F90321322000F085
:100CF00075F940F20621352000F070F90821362000
:100D000000F06CF940F20641372000F067F94FF42B
:100D10004171382000F062F90721392000F05EF9B6
:100D200040F202613C2000F059F908213D2000F01A
:100D300055F90021502000F051F9EF21512000F029
:100D40004DF90021522000F049F940F23F115320A3
:100D500000F044F94FF42741602000F03FF90121F1
:100D6000612000F03BF900216A2000F037F90021F2
:100D7000802000F033F90021812000F02FF90021BC
:100D8000822000F02BF90021832000F027F90021B8
:100D9000842000F023F90021852000F01FF91021A4
:100DA000902000F01BF94FF4C061922000F016F97A
:100DB00040F23311072000F011F92221002000F049
:100DC0000DF90020FFF7E0FC0120044908604FF412
:100DD000FC60FFF7BFFC1FB000BD000098812242FD
:100DE00001480088704700000000FE6310B504460B
:100DF000204600F0E3F8052000F03EFCFFF7F0FF8E
:100E000010BD000070B50446002300264D488088C0
:100E100049F24131884274D1082C1CD2DFE804F039
:100E20000406090C0F12151800BF14E043F08003EC
:100E300011E043F040030EE043F0C0030BE043F049
:100E4000200308E043F0600305E043F0A00302E064
:100E500043F0E00300BF00BF362643F00803194605
:100E6000304600F0BBF803F0200068B13548008838
:100E700034494988884214DA324805884088314923
:100E80000880084645800CE02E4800882D49498896
:100E9000884206DD2B48058840882A490880084694
:100EA00045802849087A00F089F8002000F080F891
:100EB000002000F07DF823490988491EC1F30F2066
:100EC00000F076F81F490978491EC8B200F070F8A2
:100ED0001C49487A00F072F8002000F069F8002000
:100EE00000F066F817494988491EC1F30F2000F049
:100EF0005FF814498978491EC8B200F059F820E01B
:100F0000FFE7082C1CD2DFE804F004070A0D0F12DB
:100F1000151843F0300313E043F0100310E043F0E2
:100F200020030DE000BF0BE043F0380308E043F07E
:100F3000280305E043F0180302E043F0080300BF74
:100F400000BF70BD4401002070B504460D4617482F
:100F5000808849F24131884214D11449087A00F05E
:100F60002DF8201200F024F8E0B200F021F80F492B
:100F7000487A00F023F8281200F01AF8E8B200F0DE
:100F800017F812E009488079012804D10748008841
:100F9000401E001B84B20549087A214600F01EF865
:100FA0000249487A294600F019F870BD4401002032
:100FB00001490880704700000000FE630149088075
:100FC00070470000FEFFFD630248C07902490880B7
:100FD0007047000044010020FEFFFD63024A1080BC
:100FE000921C118070470000FEFFFD6370B5002168
:100FF00000230F22C47804B3154C246804F4E06481
:10100000C4F5E064210AC1F10403CA40447804FA3B
:1010100003F184781440214309010E4C0678A15550
:10102000047804F01F050124AC4005786D11AD0073
:1010300005F1E025C5F8004109E0047804F01F053A
:101040000124AC40044D0678761145F8264070BD69
:101050000CED00E000E400E080E100E070470000FB
:1010600029B1064A52690243044B5A6104E0034A1B
:1010700052698243014B5A617047000000100240E0
:1010800029B1064A12690243044B1A6104E0034A7B
:1010900012698243014B1A61704700000010024040
:1010A00029B1064A92690243044B9A6104E0034A5B
:1010B00092698243014B9A61704700000010024020
:1010C00029B1064AD2680243044BDA6004E0034ABD
:1010D000D2688243014BDA60704700000010024082
:1010E00030B500210022002400232D4D6D6805F04D
:1010F0000C0121B1042905D0082923D105E0294D8F
:10110000056022E0274D05601FE0254D6D6805F460
:101110007012234D6D6805F48034022505EB924270
:101120001CB9214D554305600BE01D4D6D6805F45C
:1011300000351DB11C4D5543056002E0194D554366
:10114000056002E0174D056000BF00BF144D6D68DB
:1011500005F0F0010909154D6B5C0568DD4045603F
:101160000F4D6D6805F4E061090A104D6B5C456830
:10117000DD4085600A4D6D6805F46051C90A0B4D6C
:101180006B5C4568DD40C560054D6D6805F4404108
:10119000890B074D6B5CC568B5FBF3F5056130BD88
:1011A0000010024000127A0000093D0014000020E7
:1011B0002400002010B500F001F810BD0CB500208F
:1011C000019000903348006840F480303149086055
:1011D00000BF3048006800F4003000900198401CC7
:1011E0000190009818B90198B0F5A06FF1D1294885
:1011F000006800F4003010B10120009001E00020F0
:1012000000900098012843D12348006840F0100066
:10121000214908600846006820F00300086008467D
:10122000006840F0020008601A48406819494860A8
:101230000846406848600846406840F4806048605E
:101240000846406820F47C1048600846406840F436
:10125000E81048600846006840F08070086000BFF1
:101260000C48006800F000700028F9D00948406878
:1012700020F00300074948600846406840F002003B
:10128000486000BF0348406800F00C000828F9D10E
:101290000CBD00000010024000200240042808D1CC
:1012A0004FF0E021096941F004014FF0E0221161A3
:1012B00007E04FF0E021096921F004014FF0E0223E
:1012C0001161704710B51348006840F001001149E2
:1012D000086008464068104908400E4948600846C2
:1012E00000680E4908400B4908600846006820F471
:1012F000802008600846406820F4FE0048604FF4F3
:101300001F008860FFF756FF4FF000600449086037
:1013100010BD0000001002400000FFF8FFFFF6FEC5
:1013200008ED00E010B540F225511D4800F098F896
:1013300010B31B4800F050F9C4B21A48008800F4FA
:101340000040C8B91748008800F4804060B10A2CFA
:1013500003D000201349088020E01248008840F4A0
:1013600000401049088019E00D2C06D10D48008876
:1013700040F480400B49088010E00A480088C0F320
:101380000D0009490C5407480088401C0549088095
:1013900008460088C72801DD0020088010BD000035
:1013A00000380140300000207C00002021B18289FB
:1013B00042F40052828104E082894DF6FF731A40A4
:1013C0008281704710B504462048844209D101212A
:1013D0008803FFF775FE00214FF48040FFF770FE91
:1013E00032E01B48844209D101214804FFF748FE3E
:1013F00000214FF40030FFF743FE25E015488442FA
:1014000009D101218804FFF73BFE00214FF4802021
:10141000FFF736FE18E01048844209D10121C804C4
:10142000FFF72EFE00214FF40020FFF729FE0BE00E
:101430000A48844208D101210805FFF721FE002156
:101440004FF48010FFF71CFE10BD00000038014073
:101450000044004000480040004C00400050004064
:1014600070B50246002400230025002040F66A16CD
:10147000B14200D100BFC1F3421501F01F030126A4
:1014800006FA03F3012D02D19689334006E0022DBE
:1014900002D1168A334001E0968A33400C120126AD
:1014A00006FA04F41688344013B10CB1012000E0B0
:1014B000002070BDF0B50346002400260025002062
:1014C00040F66A17B94200D100BF1846C1F3421472
:1014D00001F01F06012707FA06F5012C01D10C3097
:1014E00004E0022C01D1103000E014301AB107687A
:1014F0002F43076002E00768AF430760F0BD0000BC
:101500002DE9F04786B005460E460024A24600BFEE
:10151000A1460027B08900B100BF2F462C8A4CF6A7
:10152000FF700440F08804432C82AC894EF6F3101F
:101530000440B08831890843718908430443AC8171
:10154000AC8A4FF6FF400440B0890443AC8201A846
:10155000FFF7C6FD1F48874202D1DDF810A001E069
:10156000DDF80CA0A88900F4004040B10AEBCA00E5
:1015700000EB0A1031684900B0FBF1F807E00AEB14
:10158000CA0000EB0A1031688900B0FBF1F8642052
:10159000B8FBF0F004012009642101FB1089A8893F
:1015A00000F4004040B1322000EBC900B0FBF1F084
:1015B00000F00700044308E0322000EB091064212A
:1015C000B0FBF1F000F00F0004432C8106B0BDE841
:1015D000F08700000038014001468888C0F3080009
:1015E0007047014600BF704710B56FF00400FFF769
:1015F00055FE0A4800680A49B0FBF1F00949087035
:101600000846007800EB4001C1EBC0104FF6FF71B7
:1016100001EAC0000449088010BD0000000000205D
:1016200000127A00280000202A0000200146114AFA
:1016300012884A434FF0E0235A6100229A611A4609
:10164000126942F001021A6100BF4FF0E0221069F6
:1016500000F001021AB100F48032002AF5D04FF0F8
:10166000E022126922F001024FF0E0231A61002209
:101670009A6170472A0000200146114A12784A43B5
:101680004FF0E0235A6100229A611A46126942F033
:1016900001021A6100BF4FF0E022106900F0010260
:1016A0001AB100F48032002AF5D04FF0E02212691E
:1016B00022F001024FF0E0231A6100229A61704784
:1016C00028000020FFF790FF4FF4165000F00AF8B2
:1016D000FEF72EFE18213820FEF72EFEFFF79AF8AF
:1016E00000BFFEE710B586B00446012144F20400B5
:1016F000FFF7D6FC2348FFF765FE4FF40070ADF806
:10170000140003208DF8160018208DF8170005A985
:101710001D48FEF7C6FE4FF48060ADF814000420AB
:101720008DF8170005A91848FEF7BBFE25208DF897
:10173000000003208DF801008DF8020001208DF8D3
:1017400003006846FFF752FC01940020ADF8080042
:10175000ADF80A00ADF80C00ADF810000C20ADF8A3
:101760000E0001A90748FFF7CBFE012240F22551E8
:101770000448FFF79FFE01210248FFF717FE06B05D
:1017800010BD00000038014000080140AC170008FF
:10179000000000207C0000006C01000828180008F0
:1017A0007C000020340700008801000800A24A04E1
:1017B0000000000000000000010203040607080901
:1017C00000000000010203040102030406070809E7
:1017D00002040608000000000000000000000000F5
:1017E00000000000000000000000000000000000F9
:1017F00000000000000000000000000000000000E9
:1018000000000000000000000000000000000000D8
:1018100000000000000000000000000000000000C8
:081820000000000000000000C0
:0400000508000131BD
:00000001FF
