:020000040800F2
:10000000C0070020CD010008D5010008D701000875
:10001000D9010008DB010008DD0100080000000034
:10002000000000000000000000000000DF010008E8
:10003000E1010008000000005B020008E501000883
:10004000E7010008E7010008E70100083115000892
:10005000E7010008E7010008E7010008E7010008E0
:10006000E7010008E7010008E7010008E7010008D0
:10007000E7010008E7010008E7010008E7010008C0
:10008000E7010008E7010008E7010008E7010008B0
:10009000E7010008E7010008E7010008E7010008A0
:1000A000E7010008E7010008E7010008E701000890
:1000B000E7010008E7010008E7010008E701000880
:1000C000E7010008E7010008E7010008E701000870
:1000D000E7010008351B0008E7010008E7010008F8
:1000E000E7010008E7010008E7010008E701000850
:1000F000E7010008E7010008E7010008E701000840
:10010000E7010008E7010008E7010008E70100082F
:10011000E7010008E7010008E7010008E70100081F
:10012000E7010008E7010008E7010008E70100080F
:1001300000F002F800F03AF80AA090E8000C8244BF
:100140008344AAF10107DA4501D100F02FF8AFF29C
:10015000090EBAE80F0013F0010F18BFFB1A43F0A5
:10016000010318475C2900007C290000103A24BFD5
:1001700078C878C1FAD8520724BF30C830C144BF0C
:1001800004680C607047000000230024002500264E
:10019000103A28BF78C1FBD8520728BF30C148BFEA
:1001A0000B6070471FB51FBD10B510BD00F092F871
:1001B0001146FFF7F7FF01F08DFE00F0B0F803B431
:1001C000FFF7F2FF03BC01F014FE0000094880476E
:1001D00009480047FEE7FEE7FEE7FEE7FEE7FEE729
:1001E000FEE7FEE7FEE7FEE704480549054A064B41
:1001F00070470000D51A000831010008C001002036
:10020000C0070020C0030020C0030020EFF31080CF
:1002100072B6704780F310887047204C204D2560DF
:100220004FF0000484F309881E4C4FF0010525703F
:100230001D4C4FF08055256062B6FEE730B41A4C75
:100240004FF08055256030BC704730B4164C4FF0ED
:100250008055256030BC704700BF72B6EFF309804F
:1002600028B1203880E8F00F10490968086000B50F
:100270000F4880475DF804EB0E480F490A7802707A
:100280000A480E490A680260106890E8F00F2030B2
:1002900080F309884EF0040E62B6704720ED00E04E
:1002A0000000FFFF5E00002004ED00E0640000207D
:1002B0001D11000853000020540000206C00002095
:1002C000704770477047704770470000004870479C
:1002D0005C0100207546FFF7F9FFAE460500694650
:1002E000534620F00700854618B020B5FFF77CFF85
:1002F000BDE820404FF000064FF000074FF0000827
:100300004FF0000B21F00701AC46ACE8C009ACE8A7
:10031000C009ACE8C009ACE8C0098D46704710B50B
:100320000446AFF300802046BDE81040FFF747BF0A
:1003300010B500F067F910BD70B504460E4600F028
:10034000AFF92546E11704EB11610912A02202EB77
:100350004101C8B200F070F900F0EEF9E11704EBCA
:1003600011610912A4EB0121C8B200F065F900F097
:10037000E3F9304600F060F900F0DEF900F0B6F97C
:100380000A2001F05BFD70BD10B5012000F01EFFDA
:10039000002000F01BFF10BD08B5014600200090B2
:1003A000034800900098084400900098008808BD19
:1003B000006C004008B500220092044A0092009AA6
:1003C00002440092009A116008BD0000006C0040D9
:1003D00051B18200A2F1C042126842F001038200D2
:1003E000A2F1C042136009E08200A2F1C04212688B
:1003F000034B1A408300A3F1C0431A60704700000A
:10040000FEFF0F00D0E901121143C26811430269D7
:1004100011434269114382691143C2691143026A5F
:100420001143426A1143826A1143C26A1143026B4B
:10043000114302689200A2F1C0421160816808294C
:100440000BD101688900A1F1C041096841F0400267
:1004500001688900A1F1C0410A60416B0968426BE3
:10046000526841EA0211426B926841EA0221426BF2
:10047000928941EA0241426B128A41EA0251426B7F
:10048000127D41EA0261426B926911430268521C7B
:100490009200A2F1C0421160C16AB1F5804F1BD138
:1004A000816B0968826B526841EA0211826B926823
:1004B00041EA0221826B128A41EA0251826B127D6B
:1004C00041EA0261826B9269114302689200A2F1D3
:1004D000C042C2F8041107E06FF070420168890061
:1004E000A1F1C041C1F8042170472DE9F041024655
:1004F00000250026002000230024002791F803C0D7
:100500000CF00F0591F803C00CF0100CBCF1000FBB
:1005100003D091F802C04CEA050591F800C0BCF187
:10052000000F31D0146800202BE04FF0010C0CFAC2
:1005300000F3B1F800C00CEA03069E4220D183000C
:100540004FF00F0C0CFA03F7BC4305FA03FC4CEA1E
:10055000040491F803C0BCF1280F06D14FF0010C40
:100560000CFA00FCC2F814C00AE091F803C0BCF118
:10057000480F05D14FF0010C0CFA00FCC2F810C076
:10058000401C0828D1D31460B1F800C0BCF1FF0FA3
:1005900034DD546800202EE000F1080C4FF0010813
:1005A00008FA0CF3B1F800C00CEA03069E4221D110
:1005B00083004FF00F0C0CFA03F7BC4305FA03FC61
:1005C0004CEA040491F803C0BCF1280F05D100F1F6
:1005D000080C08FA0CF8C2F8148091F803C0BCF1BA
:1005E000480F07D100F1080C4FF0010808FA0CF889
:1005F000C2F81080401C0828CED35460BDE8F081BA
:100600000161704708B50121082000F0BFFDC0203E
:10061000ADF8000010208DF8030003208DF80200D3
:1006200069460448FFF761FFC0210248FFF7E8FF71
:1006300008BD0000000C014070B504461548006874
:1006400020F07040134908600846006840F04050B0
:100650000860002010490860002517E0E0090E49F5
:10066000091D08606006040E022001F00DFC012047
:100670000A49C1F89801022001F006FC0020064951
:100680000860022001F000FC681CC5B2082DE5DB03
:1006900070BD0000000C0140988121420080214281
:1006A00010B50F48006820F070400D4908600846FA
:1006B000006840F04050086001200A4908600A497B
:1006C000C1F89801042001F0DFFB00200549086013
:1006D000042001F0D9FB00200349C1F8980110BDA6
:1006E000000C01409C8121420080214210B50F483E
:1006F000006820F070400D4908600846006840F02E
:100700004050086000200A4908600A49C1F89C016D
:10071000042001F0B9FB0120054908600549C1F832
:100720009C01042001F0B0FB10BD0000000C014052
:10073000988121420080214210B5002414480068AD
:1007400020F07040124908600846006840F0004000
:10075000086001200F49086001F096FB01200E4956
:10076000C1F8980101F090FB07E0601CC4B2FA2CBC
:1007700003DDFFF7BBFF012010BD0648803800688D
:100780000028F2D10349091F086000BFF4E7000008
:10079000000C01409C812142008021420146CA1781
:1007A00001EB92729210A1EB820292B9642091FB4C
:1007B000F0F200FB121050B94FF4C87091FBF0F248
:1007C00000FB121008B9012070470020FCE701204F
:1007D000FAE70020F8E7000070B504460026094853
:1007E0000588408845430021084600F001FC00F0E0
:1007F0003FFC00BF02E004480480761CAE42FAD3FE
:1008000070BD0000480100200000FE6310B50446E2
:10081000ECB900201F498871F02008804FF4A070C7
:1008200048800846808849F24131884207D12C200F
:100830001849C8712A2008722B20487226E022200D
:100840001449C87120200872212048721EE0012C32
:100850001CD101200F4988714FF4A0700880F0204E
:1008600048800846808849F24131884207D12C20CF
:100870000849C8712A2008722B20487206E02220FD
:100880000449C8712120087220204872002000F01D
:100890000DFB10BD4801002070B504460D462946E9
:1008A000204600F0A5FB00F0E3FB02480088024967
:1008B000088070BD320000200000FE6300B59FB0CC
:1008C0000121080200F032FC012140F2691000F021
:1008D0005DFC4020ADF8780010208DF87B000320EF
:1008E0008DF87A001EA9FE48FFF7FFFD4CF6B370A5
:1008F000ADF8780018208DF87B0003208DF87A0081
:100900001EA9F748FFF7F1FD4FF68070ADF87800AB
:1009100018208DF87B0003208DF87A001EA9F1487D
:10092000FFF7E3FD01200890002009900F200A90B6
:1009300000200B900C900D900E90019002900320DF
:100940000390002004900590069007900F9010905F
:100950001190102012900020139015901490169072
:1009600017904FF480501890002019904FF4804059
:100970001A9000201B9008A81C9001A81D900FA899
:10098000FFF740FD01210020FFF722FD322001F09A
:1009900055FA0121002000F075FB322001F04EFADB
:1009A000002000F077FAD049888008468088FF2828
:1009B0000ADB084680884FF6FF71884204D0CA4897
:1009C0008088B0F5134F4BD1D32000F04BFB00F0E3
:1009D0005BFA00F059FA00F057FAC34988800846DC
:1009E00080884FF6FF7101EA0020BF49888000F03F
:1009F0004BFABD4989880843BB49888008468088EE
:100A000049F2413188421BD0BF2000F02BFB00F09F
:100A10003BFA00F039FA00F037FA00F035FAB24943
:100A20008880084680884FF6FF7101EA0020AE49B1
:100A3000888000F029FAAC4989880843AA4988804F
:100A4000A948808849F24131884209D0A648808867
:100A500046F60401884203D049F24130A249888019
:100A60000120A2490860A048808849F241318842AB
:100A70007ED1CF2000F0F6FA002000F0EDFAC12080
:100A800000F0EAFA302000F0E7FAED2000F0EAFA90
:100A9000642000F0E1FA032000F0DEFA122000F0FA
:100AA000DBFA812000F0D8FAE82000F0DBFA85209C
:100AB00000F0D2FA102000F0CFFA7A2000F0CCFA41
:100AC000CB2000F0CFFA392000F0C6FA2C2000F03D
:100AD000C3FA002000F0C0FA342000F0BDFA022072
:100AE00000F0BAFAF72000F0BDFA202000F0B4FAC6
:100AF000EA2000F0B7FA002000F0AEFA002000F083
:100B0000ABFAC02000F0AEFA1B2000F0A5FAC1201D
:100B100000F0A8FA012000F09FFAC52000F0A2FA28
:100B2000302000F099FA302000F096FAC72000F04B
:100B300099FAB72000F090FA362000F093FA482096
:100B400000F08AFA3A2000F08DFA552000F084FA7D
:100B5000B12000F087FA002000F07EFA1A2000F0A1
:100B60007BFAB62000F07EFA0A2000F075FA00E069
:100B700096E0A22000F070FAF22000F073FA002054
:100B800000F06AFA262000F06DFA012000F064FA05
:100B9000E02000F067FA0F2000F05EFA2A2000F053
:100BA0005BFA282000F058FA082000F055FA0E20D1
:100BB00000F052FA082000F04FFA542000F04CFAEE
:100BC000A92000F049FA432000F046FA0A2000F07C
:100BD00043FA0F2000F040FA002000F03DFA002018
:100BE00000F03AFA002000F037FA002000F034FA62
:100BF000E12000F037FA002000F02EFA152000F076
:100C00002BFA172000F028FA072000F025FA11200F
:100C100000F022FA062000F01FFA2B2000F01CFA48
:100C2000562000F019FA3C2000F016FA052000F0DA
:100C300013FA102000F010FA0F2000F00DFA3F20F8
:100C400000F00AFA3F2000F007FA0F2000F004FA43
:100C50002B2000F007FA002000F0FEF9002000F041
:100C6000FBF9012000F0F8F93F2000F0F5F92A2007
:100C700000F0F8F9002000F0EFF9002000F0ECF9A6
:100C8000002000F0E9F9EF2000F0E6F9112000F073
:100C9000E9F9782001F0D2F8292000F0E3F9E4E046
:100CA0001148808849F225318842F8D147F6F00191
:100CB000E52000F0E7F94FF48071012000F0E2F93F
:100CC0004FF4E061022000F0DDF941F23001032031
:100CD00000F0D8F90021042000F0D4F908E0000069
:100CE0000014014000180140480100209881224270
:100CF00040F20221082000F0C5F90021092000F08F
:100D0000C1F900210A2000F0BDF900210C2000F0FB
:100D1000B9F900210D2000F0B5F900210F2000F0F5
:100D2000B1F90021102000F0ADF90721112000F0E9
:100D3000A9F90021122000F0A5F90021132000F0EC
:100D4000A1F90021072000F09DF941F290611020E7
:100D500000F098F940F22721112000F093F99D212D
:100D6000122000F08FF94FF4C851132000F08AF9D7
:100D70002521292000F086F90D212B2000F082F991
:100D80000721302000F07EF940F20331312000F0DD
:100D900079F90321322000F075F940F2062135205F
:100DA00000F070F90821362000F06CF940F206419D
:100DB000372000F067F94FF44171382000F062F9F4
:100DC0000721392000F05EF940F202613C2000F07A
:100DD00059F908213D2000F055F90021502000F07C
:100DE00051F9EF21512000F04DF90021522000F07F
:100DF00049F940F23F11532000F044F94FF42741E4
:100E0000602000F03FF90121612000F03BF9002152
:100E10006A2000F037F90021802000F033F900212A
:100E2000812000F02FF90021822000F02BF9002111
:100E3000832000F027F90021842000F023F900210D
:100E4000852000F01FF91021902000F01BF94FF4CD
:100E5000C061922000F016F940F23311072000F033
:100E600011F92221002000F00DF90020FFF7CEFC3F
:100E70000120044908604FF4FC60FFF7ADFC1FB08F
:100E800000BD0000988122420148008870470000A0
:100E90000000FE6310B50446204600F0E3F805208C
:100EA00000F0F2FFFFF7F0FF10BD000070B5044640
:100EB000002300264D48808849F24131884274D190
:100EC000082C1CD2DFE804F00406090C0F121518D8
:100ED00000BF14E043F0800311E043F040030EE054
:100EE00043F0C0030BE043F0200308E043F060034D
:100EF00005E043F0A00302E043F0E00300BF00BFC1
:100F0000362643F008031946304600F0BBF803F0DC
:100F1000200068B13548008834494988884214DA8D
:100F200032480588408831490880084645800CE0F1
:100F30002E4800882D494988884206DD2B480588BF
:100F400040882A490880084645802849087A00F0E8
:100F500089F8002000F080F8002000F07DF8234997
:100F60000988491EC1F30F2000F076F81F4909785F
:100F7000491EC8B200F070F81C49487A00F072F8B7
:100F8000002000F069F8002000F066F81749498851
:100F9000491EC1F30F2000F05FF814498978491EFB
:100FA000C8B200F059F820E0FFE7082C1CD2DFE8B7
:100FB00004F004070A0D0F12151843F0300313E074
:100FC00043F0100310E043F020030DE000BF0BE0FE
:100FD00043F0380308E043F0280305E043F018032A
:100FE00002E043F0080300BF00BF70BD48010020CD
:100FF00070B504460D461748808849F24131884251
:1010000014D11449087A00F02DF8201200F024F8C9
:10101000E0B200F021F80F49487A00F023F82812D6
:1010200000F01AF8E8B200F017F812E009488079E9
:10103000012804D107480088401E001B84B20549DE
:10104000087A214600F01EF80249487A294600F045
:1010500019F870BD48010020014908807047000060
:101060000000FE630149088070470000FEFFFD6339
:101070000248C079024908807047000048010020FA
:10108000FEFFFD63024A1080921C11807047000031
:10109000FEFFFD6310B50246012000E050430B1E29
:1010A000A1F10104E1B2F9D110BD000070B5002139
:1010B00000230F22C47804B3154C246804F4E064C0
:1010C000C4F5E064210AC1F10403CA40447804FA7B
:1010D00003F184781440214309010E4C0678A15590
:1010E000047804F01F050124AC4005786D11AD00B3
:1010F00005F1E025C5F8004109E0047804F01F057A
:101100000124AC40044D0678761145F8264070BDA8
:101110000CED00E000E400E080E100E0704700003A
:10112000014908627047000000000E4229B1064ADA
:1011300052690243044B5A6104E0034A52698243F4
:10114000014B5A61704700000010024029B1064A65
:10115000D2690243044BDA6104E0034AD269824354
:10116000014BDA61704700000010024029B1064AC5
:1011700012690243044B1A6104E0034A1269824374
:10118000014B1A61704700000010024029B1064A65
:1011900092690243044B9A6104E0034A92698243D4
:1011A000014B9A61704700000010024029B1064AC5
:1011B000D2680243044BDA6004E0034AD2688243F7
:1011C000014BDA60704700000010024001490860DE
:1011D000704700004004424230B500210022002444
:1011E00000232D4D6D6805F00C0121B1042905D0B7
:1011F000082923D105E0294D056022E0274D05602F
:101200001FE0254D6D6805F47012234D6D6805F4DF
:101210008034022505EB92421CB9214D55430560EF
:101220000BE01D4D6D6805F400351DB11C4D554397
:10123000056002E0194D5543056002E0174D056059
:1012400000BF00BF144D6D6805F0F0010909154D90
:101250006B5C0568DD4045600F4D6D6805F4E0612D
:10126000090A104D6B5C4568DD4085600A4D6D686C
:1012700005F46051C90A0B4D6B5C4568DD40C560E3
:10128000054D6D6805F44041890B074D6B5CC568E1
:10129000B5FBF3F5056130BD0010024000127A0085
:1012A00000093D00140000202400002010B5014674
:1012B0000022002300204A11012A02D1094C236890
:1012C00006E0022A02D1074C236A01E0054C636A5A
:1012D00001F01F02012494401C400CB1012000E0E9
:1012E000002010BD0010024000210B4A11700A4A74
:1012F000203A82F82010012802D0042808D103E007
:101300000121054A117004E00521034A117000E033
:1013100000BF00BF70470000201002400149086074
:10132000704700003C0442420249096A0143014AF5
:101330001162704700100240024909888143014A46
:1013400011807047042800400348008840F01000D6
:1013500001490880704700000428004003480088C5
:101360004FF6EF710840014908807047042800409B
:1013700070B500260024002500F080F806463B48A2
:10138000B6FBF0F084B23A480088A0423FD038481B
:10139000048040F2B27510E02846FFF7FFF938B13B
:1013A000B4F5B77F03DBA4F5B77084B203E007E0C0
:1013B000A4F26D1084B2681C85B2B4F5B67FEBDC84
:1013C00000BF2C488580002519E02A498888FFF74E
:1013D000E5F940B1012D06D11D2C03DBA4F11D0060
:1013E00084B20AE00DE02448405DA04204DC2248BB
:1013F000405D201A84B200E003E0681C85B21C2C1A
:10140000E3DA00BF681C1B498871601CC87117486B
:10141000B6FBF0F100FB116084B24FF4616094FB05
:10142000F0F0144908704FF4616094FBF0F100FB98
:1014300011403C2190FBF1F00E4948704FF461607F
:1014400094FBF0F100FB11403C2190FBF1F201FB19
:101450001200084988700B46DA799979988800F06B
:1014600029F804490872002070BD00008051010075
:101470003600002052010020A82A0008002103485D
:101480000188001F008841EA004070471C28004086
:1014900001460020064A12880A40D0B2044A121FB0
:1014A00012880A4012B108B1012000E00020704704
:1014B00004280040F0B503460C461546002264207F
:1014C00093FBF0F0C6B2642093FBF0F700FB1730FB
:1014D000C1B2132E02DD01F16400C1B20846CF177C
:1014E00001EB977701EBA707BAB2072092FBF0F761
:1014F00000FB172082B25719601EDFF830C01CF8BD
:101500000000384482B2CF1701EB9777BF10A1EBF0
:1015100087071FB9032C01DA501E82B2072092FB05
:10152000F0F700FB1720C0B2F0BD0000B42A00089D
:1015300010B50120FFF7ACFF08B1FFF719FF02203B
:10154000FFF7A6FF10B10220FFF7F6FE0520FFF718
:10155000F3FE00F001F910BD29B1064A12880243DA
:10156000044B1A8004E0034A12888243014B1A801C
:1015700070470000002800401CB500240420FEF73E
:101580000BFF43F25001884246D001214FF0C0507A
:10159000FFF7DCFD0120FFF7C3FDFEF7F5FE01209C
:1015A000FFF7A2FE04E0601CC4B20A2000F046FC73
:1015B0004120FFF77BFE0028F5D0FA2C01DB01204B
:1015C0001CBD4FF48070FFF7AFFE0120FFF7A6FEB1
:1015D00000F0C2F800F0CAF801210846FFF7BCFF8E
:1015E00000F0BAF8FFF7B0FE47F6FF7000F0A4F87D
:1015F00000F0B2F8002000900C230122032101909A
:101600004FF4FC6000F026F8FFF7A8FE43F250010B
:101610000420FEF7CFFE07E000F0A8F801210846FD
:10162000FFF79AFF00F098F800F004F8FFF7A0FE2B
:101630000020C5E708B503208DF8000000208DF8D4
:1016400001008DF8020001208DF803006846FFF7C5
:101650002DFD08BD2DE9F05F06460F4690469946E0
:10166000DDE90AAB002440F2B270864203DB40F6AB
:101670003300864202DD0120BDE8F09F40F2B275E2
:101680000AE02846FFF78AF810B12048044401E038
:101690001F480444681C85B2B542F2DB781EC7B20D
:1016A000002510E01B48405D40F2A321484304EBB5
:1016B000C0143046FFF772F818B1012D01D1164859
:1016C0000444681C85B2BD42ECDBA8F1010040F285
:1016D000A321484304EBC014C9EB4910C0EB092017
:1016E00004EB0014CAEB0A1004EB80045C440121F3
:1016F0004FF0C050FFF72AFD0120FFF711FD2046F3
:1017000000F00CF800F028F80020B5E70085E201B1
:101710008033E101A82A00088051010000B502468B
:10172000FFF712FE100C03490880091D0A80FFF71D
:1017300015FE00BD1828004000B50246FFF704FE64
:10174000C2F3034003490880091D0A80FFF706FE23
:1017500000BD00000828004000BF0348008800F0DA
:1017600020000028F9D0704704280040074800886E
:101770004FF6F77108400549088000BF034800880C
:1017800000F008000028F9D070470000042800404D
:1017900010B500F001F810BD0CB5002001900090CC
:1017A0003348006840F480303149086000BF304859
:1017B000006800F4003000900198401C01900098EF
:1017C00018B90198B0F5A06FF1D12948006800F46C
:1017D000003010B10120009001E00020009000983E
:1017E000012843D12348006840F0100021490860D7
:1017F0000846006820F0030008600846006840F0D2
:10180000020008601A484068194948600846406864
:1018100048600846406840F4806048600846406878
:1018200020F47C1048600846406840F4E8104860A6
:101830000846006840F08070086000BF0C480068EF
:1018400000F000700028F9D00948406820F003003B
:10185000074948600846406840F00200486000BF01
:101860000348406800F00C000828F9D10CBD0000C6
:1018700000100240002002402DE9FF5F05460E46A1
:10188000904644480788B346A8F1200000F0FF08BE
:101890000398002841D100243CE03F4800EB0810A9
:1018A00010F804A04FF000092EE00AF0800010B1FB
:1018B0003848078003E039480088364908803146B7
:1018C0002846FEF7E9FF4FEA4A604FEA106A701CAB
:1018D00086B233480088A84203DC2E480780BDE862
:1018E000FF9FA6EB0B0010280AD15E46681C85B24C
:1018F0002B480088A84202DC26480780EFE706E074
:1019000009F1010000F0FF09B9F1080FCDDB00BFBC
:10191000601CC4B2102CC0DB38E0002434E01E4848
:1019200000EB081010F804A04FF0000926E00AF0C0
:10193000800018B131462846FEF7AEFF4FEA4A60F4
:101940004FEA106A701C86B215480088A84202DC73
:1019500010480780C3E7A6EB0B0010280AD15E46AB
:10196000681C85B20E480088A84202DC094807803E
:10197000B5E706E009F1010000F0FF09B9F1080F31
:10198000D5DB00BF601CC4B2102CC8DB0148078047
:1019900000BFA4E732000020B82400083400002073
:1019A0004801002070B504460D4616460023324615
:1019B00029462046FFF760FF70BD70B504460D460E
:1019C00016460123324629462046FFF755FF70BDD3
:1019D0002DE9F05F06468A4617460025B946AB4614
:1019E00000BF0A20B9FBF0F9681CC5B2B9F1000FBD
:1019F000F7D100242DE0281B401EC1B20A20FFF7BA
:101A000049FBB7FBF0F00A21B0FBF1F201FB120831
:101A1000BBF1000F10D1681EA0420DDDB8F1000F20
:101A200008D1082101FB046188B220225146FFF74A
:101A3000B9FF0CE04FF0010B08F13001CAB20821E8
:101A400001FB046188B25146FFF7ACFF00BF601C88
:101A5000C4B2AC42CFDBBDE8F09F00002DE9F041FD
:101A600005460E4614462F4615E022783146284694
:101A7000FFF7A3FF0C480088A84208DC3D4606F1AA
:101A8000100086B208484088B04200DC09E005F149
:101A9000080085B2641C20787E2802DC207820288B
:101AA000E3DA00BFBDE8F08148010020042808D136
:101AB0004FF0E021096941F004014FF0E02211618B
:101AC00007E04FF0E021096921F004014FF0E02226
:101AD0001161704710B51348006840F001001149CA
:101AE000086008464068104908400E4948600846AA
:101AF00000680E4908400B4908600846006820F459
:101B0000802008600846406820F4FE0048604FF4DA
:101B10001F008860FFF73CFE4FF00060044908603A
:101B200010BD0000001002400000FFF8FFFFF6FEAD
:101B300008ED00E010B540F225511D4800F098F87E
:101B400010B31B4800F050F9C4B21A48008800F4E2
:101B50000040C8B91748008800F4804060B10A2CE2
:101B600003D000201349088020E01248008840F488
:101B700000401049088019E00D2C06D10D4800885E
:101B800040F480400B49088010E00A480088C0F308
:101B90000D0009490C5407480088401C054908807D
:101BA00008460088C72801DD0020088010BD00001D
:101BB00000380140300000208000002021B18289DF
:101BC00042F40052828104E082894DF6FF731A408C
:101BD0008281704710B504462048844209D1012112
:101BE0008803FFF7E3FA00214FF48040FFF7DEFAA5
:101BF00032E01B48844209D101214804FFF7B6FABC
:101C000000214FF40030FFF7B1FA25E01548844277
:101C100009D101218804FFF7A9FA00214FF480209F
:101C2000FFF7A4FA18E01048844209D10121C80442
:101C3000FFF79CFA00214FF40020FFF797FA0BE022
:101C40000A48844208D101210805FFF78FFA0021D4
:101C50004FF48010FFF78AFA10BD000000380140F1
:101C60000044004000480040004C0040005000404C
:101C700070B50246002400230025002040F66A16B5
:101C8000B14200D100BFC1F3421501F01F0301268C
:101C900006FA03F3012D02D19689334006E0022DA6
:101CA00002D1168A334001E0968A33400C12012695
:101CB00006FA04F41688344013B10CB1012000E098
:101CC000002070BDF0B5034600240026002500204A
:101CD00040F66A17B94200D100BF1846C1F342145A
:101CE00001F01F06012707FA06F5012C01D10C307F
:101CF00004E0022C01D1103000E014301AB1076862
:101D00002F43076002E00768AF430760F0BD0000A3
:101D10002DE9F04786B005460E460024A24600BFD6
:101D2000A1460027B08900B100BF2F462C8A4CF68F
:101D3000FF700440F08804432C82AC894EF6F31007
:101D40000440B08831890843718908430443AC8159
:101D5000AC8A4FF6FF400440B0890443AC8201A82E
:101D6000FFF73AFA1F48874202D1DDF810A001E0E0
:101D7000DDF80CA0A88900F4004040B10AEBCA00CD
:101D800000EB0A1031684900B0FBF1F807E00AEBFC
:101D9000CA0000EB0A1031688900B0FBF1F864203A
:101DA000B8FBF0F004012009642101FB1089A88927
:101DB00000F4004040B1322000EBC900B0FBF1F06C
:101DC00000F00700044308E0322000EB0910642112
:101DD000B0FBF1F000F00F0004432C8106B0BDE829
:101DE000F08700000038014001468888C0F30800F1
:101DF0007047014600BF704710B56FF00400FFF751
:101E000055FE0A4800680A49B0FBF1F0094908701C
:101E10000846007800EB4001C1EBC0104FF6FF719F
:101E200001EAC0000449088010BD00000000002045
:101E300000127A00280000202A0000200146114AE2
:101E400012884A434FF0E0235A6100229A611A46F1
:101E5000126942F001021A6100BF4FF0E0221069DE
:101E600000F001021AB100F48032002AF5D04FF0E0
:101E7000E022126922F001024FF0E0231A610022F1
:101E80009A6170472A0000200146114A12784A439D
:101E90004FF0E0235A6100229A611A46126942F01B
:101EA00001021A6100BF4FF0E022106900F0010248
:101EB0001AB100F48032002AF5D04FF0E022126906
:101EC00022F001024FF0E0231A6100229A6170476C
:101ED000280000200024FFF78FFF4FF4165000F079
:101EE0005DF8FEF725FA18213820FEF725FAFEF7EF
:101EF000E5FC0DE021A200210846FFF7AFFD4FF4FD
:101F0000FA70FFF79BFF20A200210846FFF7A6FD0D
:101F1000FFF732FB0028EDD11F201E4908802BE07F
:101F20001D488078A04224D01B48847882881021E4
:101F30000020FFF74DFD1848827920210020FFF78F
:101F400047FD1548C27930210020FFF741FD1248B6
:101F5000027840210020FFF73BFD0F4842785A21CC
:101F60000020FFF735FD0C4882786A210020FFF73A
:101F70002FFD1420FFF762FFD2E7000052544320E8
:101F80004552524F52000000525443205472696E21
:101F900067000000320000205201002010B586B01A
:101FA0000446012144F20400FFF7F0F82348FFF74C
:101FB00011FE4FF40070ADF8140003208DF81600E8
:101FC00018208DF8170005A91D48FEF78EFA4FF46A
:101FD0008060ADF8140004208DF8170005A918489A
:101FE000FEF783FA25208DF8000003208DF801000C
:101FF0008DF8020001208DF803006846FFF756F8BF
:1020000001940020ADF80800ADF80A00ADF80C000E
:10201000ADF810000C20ADF80E0001A90748FFF73D
:1020200077FE012240F225510448FFF74BFE0121C3
:102030000248FFF7C3FD06B010BD000000380140A4
:102040000008014000000000000000000000000047
:10205000000000003F4000000000000000003000D1
:10206000400030004000000009000BC03D000BC0E4
:102070003D00090018C024407FE02240318000006C
:10208000180024C01B000D803240018003801C40DA
:1020900027401C8007400040100060000000000046
:1020A000000000000000000000001F8020404020D1
:1020B0000000402020401F800000000009000600B2
:1020C0001F80060009000000040004003F80040097
:1020D000040000000010006000000000000000008C
:1020E000040004000400040004000000000000409C
:1020F0000000000000000000002001C006003800C1
:10210000400000001F802040204020401F80000031
:10211000000010403FC000400000000018C02140F7
:1021200022402440184000001080204024402440D9
:102130001B80000002000D0011003FC001400000A4
:102140003C80244024402440238000001F80244001
:1021500024403440038000003000200027C03800B5
:10216000200000001B802440244024401B800000ED
:102170001C0022C0224022401F80000000000000FE
:1021800008400000000000000000000004600000A3
:1021900000000000000004000A0011002080404000
:1021A0000900090009000900090000000000404082
:1021B000208011000A0004001800200023402400A1
:1021C000180000001F802040274029401F400000C9
:1021D000004007C039000F0001C0004020403FC050
:1021E000244024401B8000001F80204020402040CD
:1021F0003080000020403FC0204020401F80000071
:1022000020403FC024402E4030C0000020403FC04E
:1022100024402E00300000000F001080204022409B
:102220003380020020403FC0040004003FC0204033
:10223000204020403FC0204020400000006020207F
:1022400020203FC02000200020403FC024400B0041
:1022500030C0204020403FC020400040004000C02F
:102260003FC03C0003C03C003FC0000020403FC0D6
:102270000C4023003FC020001F8020402040204011
:102280001F80000020403FC02440240018000000B0
:102290001F802140214020E01FA0000020403FC0BF
:1022A0002440260019C0004018C024402440224089
:1022B00031800000300020403FC02040300000004E
:1022C00020003F80004000403F80200020003E0072
:1022D00001C0070038002000380007C03C0007C0DC
:1022E00038000000204039C0060039C020400000FE
:1022F0002000384007C0384020000000304021C096
:102300002640384020C00000000000007FE0402050
:1023100040200000000070000C000380004000001E
:102320000000402040207FE000000000000020006E
:1023300040002000000000000010001000100010FD
:10234000001000100000000040000000000000002D
:10235000000002800540054003C0004020003FC04F
:102360000440044003800000000003800440044057
:102370000640000000000380044024403FC00040AD
:1023800000000380054005400340000000000440B9
:102390001FC0244024402000000002E005500550EA
:1023A0000650042020403FC00440040003C0004009
:1023B0000000044027C00040000000000010001092
:1023C000041027E00000000020403FC0014007004B
:1023D00004C00440204020403FC0004000400000B6
:1023E00007C0040007C0040003C00000044007C089
:1023F0000440040003C00040000003800440044087
:1024000003800000041007F0045004400380000023
:10241000000003800440045007F00010044007C08F
:102420000240040004000000000006400540054092
:1024300004C00000000004001F80044000400000B1
:10244000040007800040044007C00040040007006B
:1024500004C0018006000400060001C0070001C09E
:1024600006000000044006C0010006C00440000051
:102470000410071004E0018006000400000004407E
:1024800005C00640044000000000000004007BE09E
:1024900040200000000000000000FFF000000000ED
:1024A000000040207BE004000000000040008000AD
:1024B000400020002000400000000000000000005C
:1024C00000000000000000000000000000001FCC21
:1024D000000C000000000000000008003000600058
:1024E0000800300060000000022003FC1E200220D3
:1024F00003FC1E200220000000000E1811043FFF04
:1025000010840C78000000000F0010840F3800C009
:10251000077818840078000000780F8410C4112414
:102520000E9800E4008400080800680070000000B5
:10253000000000000000000000000000000007E0B4
:10254000181820044002000000004002200418185F
:1025500007E00000000000000240024001800FF090
:1025600001800240024000000080008000800FF8DF
:1025700000800080008000000001000D000E0000BF
:1025800000000000000000000000008000800080CB
:1025900000800080008000800000000C000C000023
:1025A00000000000000000000000000600180060AD
:1025B0000180060018002000000007F00808100441
:1025C0001004080807F000000000080408041FFCBD
:1025D000000400040000000000000E0C1014102481
:1025E000104411840E0C000000000C18100411049B
:1025F000110412880C700000000000E00320042485
:1026000008241FFC0024000000001F9810841104FF
:102610001104108810700000000007F008881104F1
:10262000110418880070000000001C00100010FC4D
:1026300013001C001000000000000E38114410842C
:10264000108411440E38000000000700088C10446C
:102650001044088807F00000000000000000030C90
:10266000030C000000000000000000000001010653
:102670000000000000000000000000800140022077
:10268000041008081004000002200220022002208A
:10269000022002200220000000001004080804109C
:1026A000022001400080000000000E001200100C0B
:1026B000106C10800F00000003E00C1813E41424C9
:1026C00017C4082807D000000004003C03C41C40C5
:1026D000074000E4001C000410041FFC1104110456
:1026E00011040E880070000003E00C1810041004A0
:1026F000100410081C10000010041FFC100410042B
:102700001004080807F0000010041FFC1104110455
:1027100017C410040818000010041FFC1104110055
:1027200017C010000800000003E00C18100410048B
:1027300010441C780040000010041FFC108400802E
:10274000008010841FFC10040000100410041FFC03
:10275000100410040000000000030001100110012B
:102760001FFE10001000000010041FFC1104038065
:102770001464181C1004000010041FFC1004000452
:1027800000040004000C000010041FFC1F0000FCEB
:102790001F001FFC1004000010041FFC0C040300A9
:1027A00000E010181FFC100007F0080810041004C7
:1027B0001004080807F0000010041FFC10841080AB
:1027C000108010800F00000007F00818102410245B
:1027D000101C080A07F2000010041FFC110411006D
:1027E00011C011300E0C000400000E1C11041084E6
:1027F000108410441C3800001800100010041FFC46
:10280000100410001800000010001FF8100400044D
:10281000000410041FF8100010001E0011E0001C3E
:10282000007013801C0010001FC0103C00E01F004F
:1028300000E0103C1FC000001004180C163401C04A
:1028400001C01634180C100410001C00130400FC06
:1028500013041C00100000000804101C10641084F5
:1028600013041C04101800000000000000007FFE8C
:102870004002400240020000000030000C000380D3
:102880000060001C00030000000040024002400203
:102890007FFE00000000000000000000200040005B
:1028A0004000400020000000000100010001000184
:1028B0000001000100010001000040004000200074
:1028C0000000000000000000000000980124014406
:1028D0000144014400FC000410001FFC00880104B6
:1028E00001040088007000000000007000880104EE
:1028F0000104010400880000000000700088010449
:10290000010411081FFC0004000000F80144014408
:102910000144014400C800000000010401040FFC50
:102920001104110411001800000000D6012901292A
:10293000012901C90106000010041FFC00840100E8
:102940000100010400FC000400000104190419FC4A
:102950000004000400000000000000030001010169
:10296000190119FE0000000010041FFC00240040A3
:1029700001B4010C010400000000100410041FFC4D
:102980000004000400000000010401FC0104010037
:1029900001FC0104010000FC010401FC00840100B1
:1029A0000100010400FC0004000000F8010401041F
:1029B0000104010400F80000010101FF0085010489
:1029C000010400880070000000000070008801040D
:1029D0000104010501FF00010104010401FC008460
:1029E0000104010001800000000000CC012401244A
:1029F000012401240198000000000100010007F8F3
:102A00000104010400000000010001F800040004BA
:102A10000004010801FC0004010001800170000CA9
:102A2000001001600180010001F0010C003001C0C4
:102A30000030010C01F0010000000104018C007461
:102A40000170018C01040000010101810171000E7F
:102A5000001801600180010000000184010C0134B4
:102A600001440184010C000000000000000000008F
:102A700001003EFC40024002000000000000000097
:102A8000FFFF0000000000000000400240023EFC8A
:102A900001000000000000000000600080008000D5
:102AA00040004000200020001F1C1F1E1F1E1F1F73
:102AB0001E1F1E1F00030306010406020500030576
:102AC000E02A000800000020800000006C010008DF
:102AD000602B0008800000204007000088010008EB
:102AE00000A24A04000000000000000001020304EC
:102AF00006070809000000000102030401020304A4
:102B00000607080902040608000000000000000093
:102B100000000000FFFF00000000000000000000B7
:102B200000000000000000000000000000000000A5
:102B30000000000000000000000000000000000095
:102B40000000000000000000000000000000000085
:102B50000000000000000000000000000000000075
:0400000508000131BD
:00000001FF
