:020000040800F2
:10000000180900202D0200083502000837020008F8
:10001000390200083B0200083D0200080000000011
:100020000000000000000000000000003F02000887
:100030004102000800000000BB0200084502000861
:10004000470200084702000847020008391A000862
:10005000470200084702000847020008470200085C
:10006000470200084702000847020008470200084C
:10007000470200084702000847020008470200083C
:10008000470200084702000847020008470200082C
:10009000470200084702000847020008470200081C
:1000A000470200084702000847020008470200080C
:1000B0005D200008470200084702000847020008C8
:1000C00047020008470200084702000847020008EC
:1000D00047020008F1210008470200084702000813
:1000E00047020008470200084702000847020008CC
:1000F00047020008470200084702000847020008BC
:1001000047020008470200084702000847020008AB
:10011000470200084702000847020008470200089B
:10012000470200084702000847020008470200088B
:1001300000F002F800F06BF80AA090E8000C82448E
:100140008344AAF10107DA4501D100F060F8AFF26B
:10015000090EBAE80F0013F0010F18BFFB1A43F0A5
:1001600001031847A04D0000C04D00000A444FF0A5
:10017000000C10F8013B13F0070408BF10F8014B06
:100180001D1108BF10F8015B641E05D010F8016B4B
:10019000641E01F8016BF9D113F0080F1EBF10F8AF
:1001A000014BAD1C0C1B09D16D1E58BF01F801CBD2
:1001B000FAD505E014F8016B01F8016B6D1EF9D555
:1001C0009142D6D37047000000230024002500266A
:1001D000103A28BF78C1FBD8520728BF30C148BFAA
:1001E0000B607047642900F0F980752900F0F680F3
:1001F000782900F02F81632900F08382732900F0B1
:100200008882002070471FB51FBD10B510BD00F0DB
:10021000B7FA1146FFF7F7FF02F0D0F900F0D5FA70
:1002200003B4FFF7F2FF03BC02F048F90948804726
:1002300009480047FEE7FEE7FEE7FEE7FEE7FEE7C8
:10024000FEE7FEE7FEE7FEE704480549054A064BE0
:1002500070470000FD1F000831010008180300204E
:10026000180900201805002018050020EFF3108061
:1002700072B6704780F310887047204C204D25607F
:100280004FF0000484F309881E4C4FF001052570DF
:100290001D4C4FF08055256062B6FEE730B41A4C15
:1002A0004FF08055256030BC704730B4164C4FF08D
:1002B0008055256030BC704700BF72B6EFF30980EF
:1002C00028B1203880E8F00F10490968086000B5AF
:1002D0000F4880475DF804EB0E480F490A7802701A
:1002E0000A480E490A680260106890E8F00F203052
:1002F00080F309884EF0040E62B6704720ED00E0EE
:100300000000FFFF5E00002004ED00E0640000201C
:10031000F116000853000020540000206C0000205B
:10032000704700000FB4044910B503AA029800F00A
:10033000F5F910BC5DF814FB2C00002070B50446E4
:1003400085690068C10601D5302600E02026C00777
:1003500007D070BDD4E9012130469047206A401C87
:1003600020626D1EF6D570BD70B5044685690078B3
:10037000C00707D170BDD4E9012120209047206A31
:10038000401C20626D1EF6D570BD70B50C4605464A
:10039000012A05D02878800600D5EA69002302E00A
:1003A000012305E05B1C934202D2E05C0028F9D1F6
:1003B000A869E618C01AA861286A18442862284665
:1003C000FFF7BCFF04E0D5E9012114F8010B9047C9
:1003D000B442F8D32846FFF7C7FF70BD2DE9F041BE
:1003E0000646002410687529314616A510D0AFF3D3
:1003F0000080002802DA404213A507E031688A072E
:1004000001D512A502E0490704D511A5012401E098
:10041000AFF3008000210A2206F1240709E0B0FBB7
:10042000F2FCB0FBF2F302FB1C00303078541846AB
:10043000491C0028F3D123462A463046BDE8F04146
:1004400000F0FCB8000000002D0000002B000000B0
:100450002000000070B504460D4621461068AFF339
:1004600000802188090502D50F4A7A4402E00E4A2D
:100470007A440E32002104F1240305E000F00F0657
:100480000009965D5E54491C0028F7D120780023AE
:10049000000704D5702D02D009B102231132204685
:1004A000BDE8704000F0CAB89E4800002DE9F05F3A
:1004B000894604464FF0000ADFF874B1FB44C0F8E7
:1004C00020A02046E1688847002874D0252806D05F
:1004D000D4E901219047206A401C2062F1E7002600
:1004E0005F462046E16888472028054607DB312D16
:1004F00005D2781910F8200C08B10643F1E7B007CF
:1005000001D526F00406C4F81CA00027C4F818A0E2
:100510002A2D09D0284601F0CAFF38B304EB87081A
:10052000303DC8F8185019E059F8041B204604EB78
:1005300087029161E1688847012F054618D1E0697B
:10054000002820DA26F020061DE0D8F8180000EB7D
:10055000800005EB40003038C8F818002046E168FC
:100560008847054601F0A3FF0028EED1012F0AD0ED
:100570002E2D08D12046E16888477F1C0546022FB2
:1005800046F02006C4DBA069002803DA404246F0AA
:100590000106A061F00701D026F010066C2D0BD0EB
:1005A000682D09D04C2D39D06A2D35D0742D35D019
:1005B0007A2D33D016E038E0E1682F462046884790
:1005C000B842054609D16C2F26D04FF48060E1680F
:1005D000064320468847054604E06C2F1AD04FF4A6
:1005E000807006430DB3A5F14100192802D82035CB
:1005F00046F400664A462946204626604E46FFF7E6
:10060000F1FD80B101280BD0F61D26F0070000F1A6
:10061000080956E74020E4E78020D8E70020D6E725
:1006200006F104094DE7284652E7206ABDE8F09F2D
:100630007448000070477047704770472DE9F047D5
:100640000D4699469246044600F124080168880642
:1006500004D5E06921F01001216000E00120A842EA
:1006600001DD471B00E00027A1697A1902EB0900B0
:10067000081AA0612078C00602D42046FFF75EFE6B
:10068000002608E0D4E901211AF806009047206A04
:10069000401C761C20624E45F4DB2078C0060AD54B
:1006A0002046FFF74BFE06E0D4E9012130209047B9
:1006B000206A401C2062381EA7F10107F4DC07E025
:1006C000D4E9012118F805009047206A401C2062F7
:1006D000281EA5F10105F3DC2046FFF745FE207832
:1006E000000602D50220BDE8F0870120FBE710B527
:1006F000436913B1AFF3008001E0FFF746FE01202C
:1007000010BD127800F124010A7000224A70012203
:10071000EDE711684FF0FF32E9E70000074B70B5D5
:100720000D467B4400F011F80446284600F020F8FE
:1007300010B14FF0FF3070BD204670BD7B1E000031
:1007400001694A1C02610878704700B58FB0CDE995
:1007500001310021059105497944CDE90310114685
:100760006846FFF7A3FE0FB000BD0000E5FFFFFFE6
:10077000007B00F08000704700487047B402002002
:100780007546FFF7F9FFAE4605006946534620F06F
:100790000700854618B020B5FFF756FDBDE820409C
:1007A0004FF000064FF000074FF000084FF0000B2D
:1007B00021F00701AC46ACE8C009ACE8C009ACE8E0
:1007C000C009ACE8C0098D46704710B50446AFF3C8
:1007D00000802046BDE81040FFF722BD10B500F0B4
:1007E00077F910BD70B504460E4600F0BFF92546F6
:1007F000E11704EB11610912A02202EB4101C8B21A
:1008000000F080F900F0FEF9E11704EB1161091224
:10081000A4EB0121C8B200F075F900F0F3F93046FD
:1008200000F070F900F0EEF900F0C6F90A2001F0CE
:100830006BFE70BD51B18200A2F1C042126842F05D
:1008400001038200A2F1C042136009E08200A2F11C
:10085000C0421268034B1A408300A3F1C0431A60E0
:1008600070470000FEFF0F00D0E901121143C2687B
:100870001143026911434269114382691143C269FC
:100880001143026A1143426A1143826A1143C26AE8
:100890001143026B114302689200A2F1C042116041
:1008A000816808290BD101688900A1F1C04109685C
:1008B00041F0400201688900A1F1C0410A60416B2A
:1008C0000968426B526841EA0211426B926841EA40
:1008D0000221426B928941EA0241426B128A41EA4B
:1008E0000251426B127D41EA0261426B92691143EF
:1008F0000268521C9200A2F1C0421160C16AB1F5B7
:10090000804F1BD1816B0968826B526841EA0211EA
:10091000826B926841EA0221826B128A41EA02519B
:10092000826B127D41EA0261826B92691143026817
:100930009200A2F1C042C2F8041107E06FF07042C9
:1009400001688900A1F1C041C1F8042170472DE977
:10095000F041024600250026002000230024002745
:1009600091F803C00CF00F0591F803C00CF0100CC7
:10097000BCF1000F03D091F802C04CEA050591F8D4
:1009800000C0BCF1000F31D0146800202BE04FF004
:10099000010C0CFA00F3B1F800C00CEA03069E4209
:1009A00020D183004FF00F0C0CFA03F7BC4305FA7B
:1009B00003FC4CEA040491F803C0BCF1280F06D1F3
:1009C0004FF0010C0CFA00FCC2F814C00AE091F8D8
:1009D00003C0BCF1480F05D14FF0010C0CFA00FC2C
:1009E000C2F810C0401C0828D1D31460B1F800C070
:1009F000BCF1FF0F34DD546800202EE000F1080C3C
:100A00004FF0010808FA0CF3B1F800C00CEA030635
:100A10009E4221D183004FF00F0C0CFA03F7BC4328
:100A200005FA03FC4CEA040491F803C0BCF1280F5A
:100A300005D100F1080C08FA0CF8C2F8148091F8FE
:100A400003C0BCF1480F07D100F1080C4FF00108BA
:100A500008FA0CF8C2F81080401C0828CED3546065
:100A6000BDE8F081016170470246002901DB0729DA
:100A700001DD0020704742FA01F000F00100F9E7C3
:100A800010B502460623002117E001EB011000EB30
:100A9000C1100E4C14F810001478A0420BD101EBD9
:100AA000011000EBC110094C04EB40004078547871
:100AB000A04200D103E0481C81B29942E5DB00BFAF
:100AC000994201DD002010BD0846FCE7C43B000848
:100AD00008B50121082000F03DFEC020ADF800005F
:100AE00010208DF8030003208DF8020069460448A9
:100AF000FFF72DFFC0210248FFF7B4FF08BD00003B
:100B0000000C014070B504461548006820F07040A4
:100B1000134908600846006840F040500860002013
:100B200010490860002517E0E0090E49091D08601A
:100B30006006040E022001F00DFD01200A49C1F8F3
:100B40009801022001F006FD0020064908600220FD
:100B500001F000FD681CC5B2082DE5DB70BD00008A
:100B6000000C0140988121420080214210B50F48BD
:100B7000006820F070400D4908600846006840F0A9
:100B80004050086001200A4908600A49C1F89801EC
:100B9000042001F0DFFC002005490860042001F07A
:100BA000D9FC00200349C1F8980110BD000C014098
:100BB0009C8121420080214210B50F48006820F03E
:100BC00070400D4908600846006840F040500860D9
:100BD00000200A4908600A49C1F89C01042001F07C
:100BE000B9FC0120054908600549C1F89C010420B1
:100BF00001F0B0FC10BD0000000C014098812142C2
:100C00000080214210B500241448006820F0704094
:100C1000124908600846006840F000400860012062
:100C20000F49086001F096FC01200E49C1F89801B7
:100C300001F090FC07E0601CC4B2FA2C03DDFFF762
:100C4000BBFF012010BD0648803800680028F2D1A3
:100C50000349091F086000BFF4E70000000C0140D1
:100C60009C812142008021420146CA1701EB927209
:100C70009210A1EB820292B9642091FBF0F200FB8A
:100C8000121050B94FF4C87091FBF0F200FB121033
:100C900008B9012070470020FCE70120FAE7002096
:100CA000F8E7000070B5044600260948058840882A
:100CB00045430021084600F085FC00F0C3FC00BF5E
:100CC00002E004480480761CAE42FAD370BD0000F6
:100CD000A00200200000FE6310B50446ECB900201D
:100CE0001F498871F02008804FF4A07048800846A2
:100CF000808849F24131884207D12C201849C871B7
:100D00002A2008722B20487226E022201449C8713C
:100D100020200872212048721EE0012C1CD10120E5
:100D20000F4988714FF4A0700880F0204880084671
:100D3000808849F24131884207D12C200849C87186
:100D40002A2008722B20487206E022200449C8712C
:100D50002120087220204872002000F091FB10BD75
:100D6000A00200202DE9FF4F85B00746884607986E
:100D7000C41B0898A0EB08050497CDF80C804FF031
:100D8000FF300290019000264FF0000A4FF0000B58
:100D9000002C02DD0120029007E014B9002002902F
:100DA00003E04FF0FF3002906442002D02DD01208D
:100DB000019007E015B90020019003E04FF0FF30EB
:100DC00001906D42AC4201DDA6B200E0AEB24FF040
:100DD000000925E0DDE9031000F028F80AEB040023
:100DE0001FFA80FA0BEB05001FFA80FBB24508DD05
:100DF000AAEB06001FFA80FA02990498084480B210
:100E00000490B34508DDABEB06001FFA80FB0199A7
:100E10000398084480B2039009F101001FFA80F999
:100E2000701C8145D6DD09B0BDE8F08F70B5044671
:100E30000D462946204600F0C5FB00F003FC0248A1
:100E400000880249088070BD320000200000FE6367
:100E50002DE9F04104460D4616461F462B46324604
:100E600029462046FFF77EFF3B462246294620467C
:100E7000FFF778FF3B46324639462046FFF772FFC0
:100E80003B46324629463046FFF76CFFBDE8F0810D
:100E900000B59FB00121080200F02CFC012140F2B6
:100EA000691000F057FC4020ADF8780010208DF854
:100EB0007B0003208DF87A001EA9FE48FFF747FD4E
:100EC0004CF6B370ADF8780018208DF87B00032045
:100ED0008DF87A001EA9F748FFF739FD4FF68070AC
:100EE000ADF8780018208DF87B0003208DF87A008B
:100EF0001EA9F148FFF72BFD012008900020099062
:100F00000F200A9000200B900C900D900E900190F5
:100F10000290032003900020049005900690079013
:100F20000F901090119010201290002013901590A7
:100F30001490169017904FF480501890002019903C
:100F40004FF480401A9000201B9008A81C9001A824
:100F50001D900FA8FFF788FC01210020FFF76AFC15
:100F6000322001F0D1FA0121002000F075FB32207F
:100F700001F0CAFA002000F077FAD04988800846CC
:100F80008088FF280ADB084680884FF6FF71884278
:100F900004D0CA488088B0F5134F4BD1D32000F05D
:100FA0004BFB00F05BFA00F059FA00F057FAC34926
:100FB0008880084680884FF6FF7101EA0020BF490B
:100FC000888000F04BFABD4989880843BB49888076
:100FD0000846808849F2413188421BD0BF2000F08A
:100FE0002BFB00F03BFA00F039FA00F037FA00F082
:100FF00035FAB2498880084680884FF6FF7101EAC9
:101000000020AE49888000F029FAAC49898808435D
:10101000AA498880A948808849F24131884209D08C
:10102000A648808846F60401884203D049F2413040
:10103000A24988800120A2490860A048808849F21E
:10104000413188427ED1CF2000F0F6FA002000F036
:10105000EDFAC12000F0EAFA302000F0E7FAED20C6
:1010600000F0EAFA642000F0E1FA032000F0DEFA72
:10107000122000F0DBFA812000F0D8FAE82000F01E
:10108000DBFA852000F0D2FA102000F0CFFA7A20A7
:1010900000F0CCFACB2000F0CFFA392000F0C6FAED
:1010A0002C2000F0C3FA002000F0C0FA342000F039
:1010B000BDFA022000F0BAFAF72000F0BDFA2020B5
:1010C00000F0B4FAEA2000F0B7FA002000F0AEFA1F
:1010D000002000F0ABFAC02000F0AEFA1B2000F0B8
:1010E000A5FAC12000F0A8FA012000F09FFAC5205F
:1010F00000F0A2FA302000F099FA302000F096FAC1
:10110000C72000F099FAB72000F090FA362000F0DE
:1011100093FA482000F08AFA3A2000F08DFA552020
:1011200000F084FAB12000F087FA002000F07EFA87
:101130001A2000F07BFAB62000F07EFA0A2000F0B8
:1011400075FA00E096E0A22000F070FAF22000F0BC
:1011500073FA002000F06AFA262000F06DFA0120F0
:1011600000F064FAE02000F067FA0F2000F05EFA69
:101170002A2000F05BFA282000F058FA082000F03E
:1011800055FA0E2000F052FA082000F04FFA5420D1
:1011900000F04CFAA92000F049FA432000F046FA8A
:1011A0000A2000F043FA0F2000F040FA002000F07F
:1011B0003DFA002000F03AFA002000F037FA002053
:1011C00000F034FAE12000F037FA002000F02EFAA7
:1011D000152000F02BFA172000F028FA072000F065
:1011E00025FA112000F022FA062000F01FFA2B2029
:1011F00000F01CFA562000F019FA3C2000F016FA14
:10120000052000F013FA102000F010FA0F2000F073
:101210000DFA3F2000F00AFA3F2000F007FA0F20F5
:1012200000F004FA2B2000F007FA002000F0FEF98D
:10123000002000F0FBF9012000F0F8F93F2000F059
:10124000F5F92A2000F0F8F9002000F0EFF900206D
:1012500000F0ECF9002000F0E9F9EF2000F0E6F9E9
:10126000112000F0E9F9782001F04EF9292000F072
:10127000E3F9E4E01148808849F225318842F8D149
:1012800047F6F001E52000F0E7F94FF48071012006
:1012900000F0E2F94FF4E061022000F0DDF941F2E4
:1012A0003001032000F0D8F90021042000F0D4F927
:1012B00008E000000014014000180140A0020020D6
:1012C0009881224240F20221082000F0C5F9002155
:1012D000092000F0C1F900210A2000F0BDF9002129
:1012E0000C2000F0B9F900210D2000F0B5F9002123
:1012F0000F2000F0B1F90021102000F0ADF9072116
:10130000112000F0A9F90021122000F0A5F9002118
:10131000132000F0A1F90021072000F09DF941F20F
:101320009061102000F098F940F22721112000F080
:1013300093F99D21122000F08FF94FF4C85113202A
:1013400000F08AF92521292000F086F90D212B20B3
:1013500000F082F90721302000F07EF940F20331DD
:10136000312000F079F90321322000F075F940F2C4
:101370000621352000F070F90821362000F06CF9C4
:1013800040F20641372000F067F94FF441713820F0
:1013900000F062F90721392000F05EF940F20261A5
:1013A0003C2000F059F908213D2000F055F90021BA
:1013B000502000F051F9EF21512000F04DF90021AB
:1013C000522000F049F940F23F11532000F044F957
:1013D0004FF42741602000F03FF90121612000F027
:1013E0003BF900216A2000F037F90021802000F04D
:1013F00033F90021812000F02FF90021822000F034
:101400002BF90021832000F027F90021842000F02F
:1014100023F90021852000F01FF91021902000F011
:101420001BF94FF4C061922000F016F940F233111D
:10143000072000F011F92221002000F00DF9002012
:10144000FFF74AFC01200449086049F21A00FFF73F
:1014500029FC1FB000BD000098812242014800888D
:10146000704700000000FE6310B50446204600F0FF
:10147000E3F8052001F06EF8FFF7F0FF10BD000063
:1014800070B50446002300264D48808849F241315A
:10149000884274D1082C1CD2DFE804F00406090C41
:1014A0000F12151800BF14E043F0800311E043F061
:1014B00040030EE043F0C0030BE043F0200308E0DC
:1014C00043F0600305E043F0A00302E043F0E003D3
:1014D00000BF00BF362643F008031946304600F02F
:1014E000BBF803F0200068B13548008834494988CA
:1014F000884214DA32480588408831490880084615
:1015000045800CE02E4800882D494988884206DD38
:101510002B48058840882A49088008464580284984
:10152000087A00F089F8002000F080F8002000F030
:101530007DF823490988491EC1F30F2000F076F891
:101540001F490978491EC8B200F070F81C49487A52
:1015500000F072F8002000F069F8002000F066F852
:1015600017494988491EC1F30F2000F05FF814495C
:101570008978491EC8B200F059F820E0FFE7082C2E
:101580001CD2DFE804F004070A0D0F12151843F00F
:10159000300313E043F0100310E043F020030DE0AC
:1015A00000BF0BE043F0380308E043F0280305E0F8
:1015B00043F0180302E043F0080300BF00BF70BD12
:1015C000A002002070B504460D461748808849F2F5
:1015D0004131884214D11449087A00F02DF82012C4
:1015E00000F024F8E0B200F021F80F49487A00F04A
:1015F00023F8281200F01AF8E8B200F017F812E009
:1016000009488079012804D107480088401E001B42
:1016100084B20549087A214600F01EF80249487A4A
:10162000294600F019F870BDA00200200149088089
:10163000704700000000FE63014908807047000009
:10164000FEFFFD630248C079024908807047000030
:10165000A0020020FEFFFD63024A1080921C118050
:1016600070470000FEFFFD6310B50246012000E058
:1016700050430B1EA1F10104E1B2F9D110BD0000ED
:1016800070B5002100230F22C47804B3154C2468E0
:1016900004F4E064C4F5E064210AC1F10403CA4023
:1016A000447804FA03F184781440214309010E4C74
:1016B0000678A155047804F01F050124AC40057894
:1016C0006D11AD0005F1E025C5F8004109E0047891
:1016D00004F01F050124AC40044D0678761145F84E
:1016E000264070BD0CED00E000E400E080E100E089
:1016F0007047000029B1064A52690243044B5A61FF
:1017000004E0034A52698243014B5A61704700006A
:101710000010024029B1064AD2690243044BDA6143
:1017200004E0034AD2698243014BDA61704700004A
:101730000010024029B1064A12690243044B1A61A3
:1017400004E0034A12698243014B1A6170470000AA
:101750000010024029B1064A92690243044B9A6183
:1017600004E0034A92698243014B9A61704700008A
:101770000010024029B1064AD2680243044BDA60E5
:1017800004E0034AD2688243014BDA6070470000EC
:101790000010024030B500210022002400232D4D0E
:1017A0006D6805F00C0121B1042905D0082923D169
:1017B00005E0294D056022E0274D05601FE0254D1D
:1017C0006D6805F47012234D6D6805F480340225B0
:1017D00005EB92421CB9214D554305600BE01D4DB0
:1017E0006D6805F400351DB11C4D5543056002E0E0
:1017F000194D5543056002E0174D056000BF00BF5D
:10180000144D6D6805F0F0010909154D6B5C056814
:10181000DD4045600F4D6D6805F4E061090A104D2B
:101820006B5C4568DD4085600A4D6D6805F460516C
:10183000C90A0B4D6B5C4568DD40C560054D6D68A0
:1018400005F44041890B074D6B5CC568B5FBF3F5AA
:10185000056130BD0010024000127A0000093D0011
:101860001400002024000020024909888143014A15
:10187000118070470428004070B500260024002520
:1018800000F080F806463B48B6FBF0F084B23A48D8
:101890000088A0423FD03848048040F2B27510E082
:1018A0002846FFF7E1F938B1B4F5B77F03DBA4F5BB
:1018B000B77084B203E007E0A4F26D1084B2681C34
:1018C00085B2B4F5B67FEBDC00BF2C4885800025DF
:1018D00019E02A498888FFF7C7F940B1012D06D1E0
:1018E0001D2C03DBA4F11D0084B20AE00DE02448A6
:1018F000405DA04204DC2248405D201A84B200E032
:1019000003E0681C85B21C2CE3DA00BF681C1B498D
:101910008871601CC8711748B6FBF0F100FB1160BC
:1019200084B24FF4616094FBF0F0144908704FF4F6
:10193000616094FBF0F100FB11403C2190FBF1F061
:101940000E4948704FF4616094FBF0F100FB1140C8
:101950003C2190FBF1F201FB1200084988700B4614
:10196000DA799979988800F029F8044908720020FA
:1019700070BD00008051010036000020AA02002046
:10198000F44C0008002103480188001F008841EA48
:10199000004070471C28004001460020064A12887B
:1019A0000A40D0B2044A121F12880A4012B108B18C
:1019B000012000E00020704704280040F0B50346F5
:1019C0000C4615460022642093FBF0F0C6B264205A
:1019D00093FBF0F700FB1730C1B2132E02DD01F1CB
:1019E0006400C1B20846CF1701EB977701EBA70758
:1019F000BAB2072092FBF0F700FB172082B257190A
:101A0000601EDFF830C01CF80000384482B2CF17E7
:101A100001EB9777BF10A1EB87071FB9032C01DA01
:101A2000501E82B2072092FBF0F700FB1720C0B2D5
:101A3000F0BD0000004D000810B50120FFF7ACFF1D
:101A400008B1FFF719FF0220FFF7A6FF10B102202F
:101A5000FFF70AFF0520FFF707FF00F001F810BDB0
:101A600000BF0348008800F020000028F9D070472C
:101A70000428004010B500F001F810BD0CB500209E
:101A8000019000903348006840F48030314908608C
:101A900000BF3048006800F4003000900198401CFE
:101AA0000190009818B90198B0F5A06FF1D12948BC
:101AB000006800F4003010B10120009001E0002027
:101AC00000900098012843D12348006840F010009E
:101AD000214908600846006820F0030008600846B5
:101AE000006840F0020008601A48406819494860E0
:101AF0000846406848600846406840F48060486096
:101B00000846406820F47C1048600846406840F46D
:101B1000E81048600846006840F08070086000BF28
:101B20000C48006800F000700028F9D009484068AF
:101B300020F00300074948600846406840F0020072
:101B4000486000BF0348406800F00C000828F9D145
:101B50000CBD000000100240002002402DE9FF5F94
:101B600005460E46904644480788B346A8F1200033
:101B700000F0FF080398002841D100243CE03F48D2
:101B800000EB081010F804A04FF000092EE00AF056
:101B9000800010B13848078003E039480088364992
:101BA000088031462846FFF741F94FEA4A604FEA7C
:101BB000106A701C86B233480088A84203DC2E48A5
:101BC0000780BDE8FF9FA6EB0B0010280AD15E46F8
:101BD000681C85B22B480088A84202DC2648078092
:101BE000EFE706E009F1010000F0FF09B9F1080F85
:101BF000CDDB00BF601CC4B2102CC0DB38E0002479
:101C000034E01E4800EB081010F804A04FF0000963
:101C100026E00AF0800018B131462846FFF706F9A1
:101C20004FEA4A604FEA106A701C86B21548008875
:101C3000A84202DC10480780C3E7A6EB0B0010287F
:101C40000AD15E46681C85B20E480088A84202DCB4
:101C500009480780B5E706E009F1010000F0FF0937
:101C6000B9F1080FD5DB00BF601CC4B2102CC8DB73
:101C70000148078000BFA4E73200002004470008A5
:101C800034000020A002002070B504460D46164620
:101C90000023324629462046FFF760FF70BD70B52D
:101CA00004460D4616460123324629462046FFF7D4
:101CB00055FF70BD2DE9FF4F81B004460F469B468E
:101CC000A1464948008800900398FEF7D9FE824655
:101CD000BAF1000F02D105B0BDE8F08FBBF1000FE3
:101CE0003CD1002537E0002630E0C6F1070291B272
:101CF0000AEB0A1202EBCA123C4B03EB4202921CA3
:101D0000505DFEF7B1FE18B137490098088003E036
:101D1000374800883449088039462046FFF786F85E
:101D2000601C84B233480088A04200DCD3E7A4EBF7
:101D30000900182808D14C46781C87B22D484088E5
:101D4000B84200DCC7E703E0701C86B2082ECCDB8B
:101D500000BF681C85B2032DC5DB3FE04FF00008D3
:101D600039E0002531E000262AE00AEB0A1202EBF6
:101D7000CA121E4B03EB4202921C08FB05F3D05C17
:101D8000C6F1070291B2FEF76FFE18B13946204640
:101D9000FFF74CF8601C84B216480088A04200DCB3
:101DA00099E7A4EB0900182808D14C46781C87B2A3
:101DB00010484088B84200DC8DE703E0701C86B212
:101DC000082ED2DB00BF681C85B2032DCBDB08F1E7
:101DD00001001FFA80F8B8F1180FC2DB0249009821
:101DE000088000BF77E7000032000020C43B0008F5
:101DF00034000020A002002070B504460D461646AF
:101E00000123324629462046FFF754FF70BD0000EB
:101E10002DE9F04105460E461446A846002728E065
:101E2000DFB92078802801DD012722E020780D2805
:101E300005D106F1100086B24546641C04E0224636
:101E40003146284600F09EF8641C05F1080085B272
:101E50000B480088A8420CDC0EE0012F09D10027B6
:101E6000224631462846FFF7C7FFA41C05F11C0097
:101E700085B220780028D3D100BFBDE8F0810000F2
:101E8000A00200202DE9F04105460E461446A84662
:101E9000002728E0DFB92078802801DD012722E033
:101EA00020780D2805D106F1100086B24546641C45
:101EB00004E022463146284600F064F8641C05F12F
:101EC000080085B20B480088A8420CDC0EE0012F08
:101ED00009D10027224631462846FFF78DFFA41C72
:101EE00005F1300085B220780028D3D100BFBDE8CD
:101EF000F0810000A00200202DE9F05F06468A462E
:101F000017460025B946AB4600BF0A20B9FBF0F9D9
:101F1000681CC5B2B9F1000FF7D100242DE0281BD1
:101F2000401EC1B20A20FFF79FFBB7FBF0F00A2169
:101F3000B0FBF1F201FB1208BBF1000F10D1681EDB
:101F4000A0420DDDB8F1000F08D1082101FB0461AA
:101F500088B220225146FFF797FE0CE04FF0010BAC
:101F600008F13001CAB2082101FB046188B2514670
:101F7000FFF78AFE00BF601CC4B2AC42CFDBBDE8F5
:101F8000F09F00002DE9F04105460E4614462F460D
:101F900015E0227831462846FFF781FE0C4800887C
:101FA000A84208DC3D4606F1100086B20848408889
:101FB000B04200DC09E005F1080085B2641C20781D
:101FC0007E2802DC20782028E3DA00BFBDE8F0811B
:101FD000A0020020042808D14FF0E021096941F057
:101FE00004014FF0E022116107E04FF0E0210969A0
:101FF00021F004014FF0E0221161704710B5134841
:10200000006840F001001149086008464068104926
:1020100008400E494860084600680E4908400B49D0
:1020200008600846006820F4802008600846406880
:1020300020F4FE0048604FF41F008860FFF71AFD8F
:102040004FF000600449086010BD0000001002401D
:102050000000FFF8FFFFF6FE08ED00E010B54FF0BE
:102060008040008A00F0010048B1094908698047B2
:1020700000204FF0804188844FF47A7088854FF0BB
:102080008040008A20F001004FF08041088210BD9E
:10209000E400002021B1028842F00102028004E045
:1020A00002884FF6FE731A40028070471AB1838986
:1020B0000B43838102E083898B4383817047000057
:1020C000002202881D4B98420ED01D4B98420BD027
:1020D000B0F1804F08D01B4B984205D01A4B984264
:1020E00002D01A4B984204D14FF68F731A404B8896
:1020F0001A43174B984207D0164B984204D04FF61C
:10210000FF431A40CB881A4302808B8883850B8853
:1021100003850A4B98420BD0094B984208D00E4BCE
:10212000984205D00D4B984202D00D4B984201D1F8
:102130000B7A03860123838270470000002C014044
:10214000003401400004004000080040000C004042
:1021500000100040001400400040014000440140D5
:10216000004801407FB505460C4601210846FFF7AF
:10217000D1FAADF80850ADF804400020ADF80A00DF
:10218000ADF8060001A94FF08040FFF799FF01224A
:1021900041218807FFF78AFF1C208DF800000320EB
:1021A0008DF801008DF8020001208DF803006846CB
:1021B000FFF766FA01218807FFF76CFF7FBD00007B
:1021C00010B509A28C212620FFF722FE40F204520E
:1021D0008F217620FFF790FEE223C822B22126202D
:1021E000FEF736FE10BD0000B9E2C7BF20A3BA005B
:1021F00010B540F225511D4800F098F810B31B4867
:1022000000F050F9C4B21A48008800F40040C8B980
:102210001748008800F4804060B10A2C03D00020E9
:102220001349088020E01248008840F4004010491B
:10223000088019E00D2C06D10D48008840F480403C
:102240000B49088010E00A480088C0F30D000949D6
:102250000C5407480088401C05490880084600883F
:10226000C72801DD0020088010BD000000380140B3
:1022700030000020D801002021B1828942F40052B0
:10228000828104E082894DF6FF731A408281704793
:1022900010B504462048844209D101218803FFF784
:1022A00069FA00214FF48040FFF764FA32E01B48DE
:1022B000844209D101214804FFF73CFA00214FF480
:1022C0000030FFF737FA25E01548844209D1012193
:1022D0008804FFF72FFA00214FF48020FFF72AFA35
:1022E00018E01048844209D10121C804FFF722FAFE
:1022F00000214FF40020FFF71DFA0BE00A4884424A
:1023000008D101210805FFF715FA00214FF48010CC
:10231000FFF710FA10BD00000038014000440040F3
:1023200000480040004C00400050004070B502469C
:10233000002400230025002040F66A16B14200D197
:1023400000BFC1F3421501F01F03012606FA03F393
:10235000012D02D19689334006E0022D02D1168A62
:10236000334001E0968A33400C12012606FA04F449
:102370001688344013B10CB1012000E0002070BD7C
:10238000F0B50346002400260025002040F66A1719
:10239000B94200D100BF1846C1F3421401F01F0634
:1023A000012707FA06F5012C01D10C3004E0022CBC
:1023B00001D1103000E014301AB107682F430760D4
:1023C00002E00768AF430760F0BD00002DE9F04769
:1023D00086B005460E460024A24600BFA14600274F
:1023E000B08900B100BF2F462C8A4CF6FF70044024
:1023F000F08804432C82AC894EF6F3100440B08878
:1024000031890843718908430443AC81AC8A4FF693
:10241000FF400440B0890443AC8201A8FFF7BAF939
:102420001F48874202D1DDF810A001E0DDF80CA0C2
:10243000A88900F4004040B10AEBCA0000EB0A1082
:1024400031684900B0FBF1F807E00AEBCA0000EB85
:102450000A1031688900B0FBF1F86420B8FBF0F095
:1024600004012009642101FB1089A88900F40040BF
:1024700040B1322000EBC900B0FBF1F000F00700E2
:10248000044308E0322000EB09106421B0FBF1F0B6
:1024900000F00F0004432C8106B0BDE8F087000077
:1024A0000038014001468888C0F308007047303882
:1024B0000A2801D20120704700207047014600BF62
:1024C0007047000010B56FF00400FFF783FD0A4865
:1024D00000680A49B0FBF1F0094908700846007825
:1024E00000EB4001C1EBC0104FF6FF7101EAC000E4
:1024F0000449088010BD00000000002000127A008E
:10250000280000202A0000200146114A12884A4370
:102510004FF0E0235A6100229A611A46126942F094
:1025200001021A6100BF4FF0E022106900F00102C1
:102530001AB100F48032002AF5D04FF0E02212697F
:1025400022F001024FF0E0231A6100229A617047E5
:102550002A0000200146114A12784A434FF0E02336
:102560005A6100229A611A46126942F001021A6108
:1025700000BF4FF0E022106900F001021AB100F430
:102580008032002AF5D04FF0E022126922F00102D9
:102590004FF0E0231A6100229A6170472800002062
:1025A00000BF054A128802F04002002AF9D0C2B2E8
:1025B000014B1B1D1A8070470038014000BFFFF718
:1025C00081FF4FF4165000F01BF8FEF707F91821B1
:1025D0003820FEF707F9FEF75BFC06484168482003
:1025E000884705E0FFF7ECFD4FF4FA70FFF78CFF2A
:1025F000F8E70000E400002001460868704700008A
:1026000010B586B00446012144F20400FFF7A2F899
:102610002348FFF73DFE4FF40070ADF8140003208F
:102620008DF8160018208DF8170005A91D48FEF733
:102630008EF94FF48060ADF8140004208DF8170077
:1026400005A91848FEF783F925208DF8000003201E
:102650008DF801008DF8020001208DF80300684616
:10266000FFF70EF801940020ADF80800ADF80A005D
:10267000ADF80C00ADF810000C20ADF80E0001A96B
:102680000748FFF7A3FE012240F225510448FFF757
:1026900077FE01210248FFF7EFFD06B010BD0000F4
:1026A000003801400008014030B595B0054613AB35
:1026B00012AA09A9284600F039FA044614B12046A6
:1026C00015B030BD0020149026E0224909689DF81D
:1026D000502001EBC20113AB11AA486801A900F018
:1026E00025FA04460CB12046EAE709A901A800F042
:1026F000B5FC60B99DF844009DF84810884201DDA2
:102700000220DDE79DF85000124988750AE09DF827
:102710005000401CC0B214900E48007D9DF850102F
:102720008842D2DC00BF0B48007D9DF850108842E3
:1027300001D10420C4E714A9284600F0D7FA0446C2
:102740000CB12046BCE79DF85000024948750020B6
:10275000B6E70000E40000202DE9F0419AB09C4863
:10276000847D007DA04202DC1AB0BDE8F08198496A
:10277000096801EBC40106AB07AA486808A900F084
:10278000D5F908A993A0FDF7CDFD002644E09048B7
:10279000008B0121B1400840D8B122218FA0FDF764
:1027A000C1FD304600F028FB8949243147183946DD
:1027B0008BA0FDF7B7FD222188A0FDF7B3FD3046C1
:1027C00000F01AFB82492431084410A941F8260080
:1027D00018E0304600F010FB7D492431085810A95C
:1027E00041F826007A48C07D30B910A850F826106C
:1027F0007CA0FDF797FD05E010A850F826107AA000
:10280000FDF790FD9DF81C00401EB04202D078A05C
:10281000FDF788FD701CC6B29DF81C008642B6DB31
:1028200074A0FDF77FFD00F037FB6948407D0B2861
:102830000DD2DFE800F0060D151E27323F4E5F7205
:1028400087006349096851F834008047054690E0E5
:102850005F4A126852F8341010988847054688E09D
:102860005B4B1B6853F83420DDE9100190470546A7
:102870007FE0574F3F6857F8343010A807C8984793
:10288000054676E0DFF848C1DCF800C05CF834703B
:1028900010A80FC8B84705466BE01498DFF830C1A0
:1028A0000090DCF800C05CF8347010A80FC8B8477E
:1028B00005465EE0DDE91401DFF814C1CDE9000151
:1028C000DCF800C05CF8347010A80FC8B8470546A3
:1028D0004FE0DDE914121698DFF8F4C0CDE90012DC
:1028E0000290DCF800C05CF8347010A80FC8B8473C
:1028F00005463EE0DDE91423DDE91610DFF8D0C01F
:10290000CDE90023CDE90210DCF800C05CF834709A
:1029100010A80FC8B84705462BE0DDE91523DDE90F
:102920001710CDE90123CDE903101498DFF8A0C0FA
:102930000090DCF800C05CF8347010A80FC8B847ED
:10294000054616E0DDE91623DDE91810CDE902237E
:10295000CDE90410DDE91401DFF874C0CDE9000110
:10296000DCF800C05CF8347010A80FC8B847054602
:1029700000BF00BF00F050FA9DF8180001280CD1EC
:102980001348C07D20B929461BA0FDF7CBFC07E00A
:1029900029461BA0FDF7C6FC02E018A0FDF7C2FC0B
:1029A0000B4890F8EC0088B10948D0F8F0000A21F3
:1029B000B0FBF1F201FB12070548D0F8F000B0FBC4
:1029C000F1F83A46414611A0FDF7ACFC00BFCBE65A
:1029D000E40000200D0A2573280000002563000094
:1029E00025730000256C7500305825580000000044
:1029F0002C000000290000003D256C753B0D0A00ED
:102A00003D305825583B0D0A0000000046756E63A6
:102A100074696F6E2052756E2054696D653A256435
:102A20002E2531646D730D0A00000000F0B50346D9
:102A30001546002000220026002455E01F782C2F88
:102A400001D104B901221F78292F01D01F780FB9B5
:102A500004B94AE0002E34D11F78302F02DB1F78F2
:102A6000392F11DD1F78612F02DB1F78662F0BDDF8
:102A70001F78412F02DB1F78462F05DD1F78582F66
:102A800002D01F78782F0CD102B12EE01F78612F71
:102A900003DB1F78203F0F7001E01F780F70491C87
:102AA0001FE01F78222F04D102B11EE0012601246D
:102AB00017E01F78202F14D01F782C2F11D0FF265D
:102AC00013E01F78222F00D1002402B10DE044B1A1
:102AD0001F785C2F02D15B1C471CF8B21F780F7067
:102AE000491C471CF8B25B1CA8E700BF00270F7009
:102AF0002E70F0BD10B50446002010700BE0207859
:102B00000870641C491C1078401C107010789842A2
:102B100001DB012010BD2078202802D02078002879
:102B2000EDD10020087000BFF4E700002DE9FF4F51
:102B300085B080468946002700200490039001203C
:102B400002904FF0000B002544461DE0207820281D
:102B500016D005F07F00052812DA0DB945F0800582
:102B600005F07F00042803D120782A2800D00EE049
:102B7000207805F07F010DF80100681CC5B202E065
:102B8000852D00D103E0641C20780028DED100BF31
:102B90008DB1002005F07F010DF8010051A16846BC
:102BA00000F05CFA18B900210898017002E00121D8
:102BB0000898017000254FF0000A444614E0641C98
:102BC0000AF1010000F0FF0A2078202802D02078C6
:102BD0002A2809D1204600F0D1F90646282E03D034
:102BE0002A2E01D0CDF810A02078282802D02078F5
:102BF0000028E4D14446049810B10498401C0444D1
:102C00004FF0000A002654E0207810B94FF0010A76
:102C100050E02078282803D116B9781CC7B213E0F9
:102C20002078292808D13EB917B1781EC7B201E033
:102C30004FF0010A47B93DE02078222804D10EB9AF
:102C4000012000E00020064647B9207820282FD038
:102C5000207889F8000009F1010929E020782C2862
:102C600004D101200290681CC5B214E0207820280D
:102C700011D0207828280ED04DB9BBF1050F06DA07
:102C800020780DF80B000BF1010000F0FF0B02980B
:102C9000401CC0B20290012F0AD10298022807D12D
:102CA0000298401CC0B202900398401CC0B203902E
:102CB000641CA9E700BF0398012809D100200DF882
:102CC0000B0008A1684600F0C9F908B9002003907C
:102CD000079903980870002089F80000504609B051
:102CE000BDE8F08F766F6964000000002DE9F043C5
:102CF000B5B005460F460024002604E000213D48FB
:102D00008155701CC6B20A2EF8DB06E06D1C2878CF
:102D100018B9012035B0BDE8F08328782828F5D10E
:102D20006D1C61E034AA69462846FFF77FFE06461F
:102D300035449DF8D00020B1012827D0FF284CD180
:102D400049E09DF8000000B333A9684600F021F97E
:102D500006460EB10220DDE7204600F04DF8254979
:102D60000A31339A0A50A1F12400008B0121A140BD
:102D7000884320491A39088304211E480155601CE4
:102D8000C4B20A2C01DD0320C4E726E0684600F047
:102D900081F9401C00F0FF08204600F02DF815498D
:102DA0000A3100EB01094946684600F068F911480C
:102DB0001A38018B0120A040014388B20D491A390D
:102DC00008830C4800F80480601CC4B20A2C01DDA2
:102DD00003209FE701E002209CE700BF2878292814
:102DE00001D0287800B900E09CE700BF3C700020CB
:102DF00090E70000FE00002002460020002105E0D0
:102E0000044B5B5C0344D8B24B1CD9B29142F7DB54
:102E100070470000FE0000204FF08040008A00F064
:102E2000010040B10B48D0F8F0004FF6FF710844A4
:102E30000849C1F8F0000748D0F8F0004FF0804191
:102E4000898C08440349C1F8F0000846D0F8F00026
:102E500070470000E400002010B5044604EBC400F5
:102E600000EB04100122C2EB800081B24FF47A70B3
:102E7000FFF778F901200149C87510BDE400002072
:102E800010B50246012000E050430B1EA1F10104E1
:102E9000E1B2F9D110BD00004FF08040008A20F06F
:102EA00001004FF0804108824FF6FF7088850020B6
:102EB00088840249C1F8F00070470000E400002057
:102EC00070B51D48008800F40040002833D01A482F
:102ED00005780020194948551948816817488847DE
:102EE00004461CB91649C868804721E0134800F021
:102EF000DDF80546012D00D02C46CCB1012C06D0C2
:102F0000022C08D0032C0AD0042C10D10BE00DA009
:102F1000FDF708FA0BE00EA0FDF704FA07E00FA09A
:102F2000FDF700FA03E010A0FDF7FCF900BF00BFB9
:102F300000200149088070BD30000020D801002029
:102F4000E4000020BAAFCAFDB4EDCEF3210D0A00B3
:102F5000B2CECAFDB4EDCEF3210D0A00B2CECAFD49
:102F6000CCABB6E0210D0A00CEB4D5D2B5BDC6A516
:102F7000C5E4B5C4BAAFCAFD210D0A000146491C1B
:102F800000E0491C0878202801D10029F9D10878EF
:102F900070472DE9F04307460E4600254FF00A081A
:102FA0003C46002030601FE02078392802DC207881
:102FB00030280ADA2078462802DC2078412804DA12
:102FC0002078582809D1012D07D12078412801DB2C
:102FD0004FF01008681CC5B205E0207800B904E085
:102FE0000120BDE8F083641CDEE700BF3C46B8F179
:102FF000100F0FD1032D01DA0220F2E720783028DC
:1030000006D16078582803D1A41CA81EC5B204E0DC
:103010000320E6E70DB90420E3E71BE00DB1681ECD
:10302000C5B22078392806DC2078302803DB2078E8
:10303000A0F1300902E02078A0F137092946404686
:10304000FFF71EFF316809FB00103060641C207818
:1030500000B900E0E2E700BF0020C2E702460AE054
:1030600010780B78984201D001207047107800B991
:1030700002E0521C491CF3E700BF0020F5E706E020
:1030800002780A70027802B902E0401C491CF7E796
:1030900000BF70470146002005E00A7802B903E04E
:1030A000421CD0B2491CF8E700BF704710B58CB085
:1030B00004461E230BAA03A92046FFF71BFD009020
:1030C000009810B101200CB010BD9DF82C000444F4
:1030D00000200B900EE040489DF82C2050F8221064
:1030E00003A8FFF7BBFF00B908E09DF82C00401CC7
:1030F000C0B20B909DF82C000728ECD300BF9DF8C0
:103100002C00072863D2DFE800F004053C5E65640C
:10311000630000BF31A0FDF705F931A0FDF702F90A
:103120003FA0FDF7FFF84EA0FDF7FCF85CA0FDF70F
:10313000F9F86BA0FDF7F6F879A0FDF7F3F886A093
:10314000FDF7F0F88BA0FDF7EDF890A0FDF7EAF899
:1031500094A0FDF7E7F899A0FDF7E4F89EA0FDF72D
:10316000E1F8A4A0FDF7DEF8B0A0FDF7DBF8BDA004
:10317000FDF7D8F8C8A0FDF7D5F8D4A0FDF7D2F830
:103180009AE216A0FDF7CEF8E0A0FDF7CBF80020FC
:103190000B900EE0ED4800689DF82C2000EBC2007B
:1031A0004168EBA0FDF7BEF89DF82C00401CC0B2B2
:1031B0000B90E648007D9DF82C108842EADC07A0C1
:1031C000FDF7B0F878E205A0FDF7ACF8C4E171E2D4
:1031D00045E219E2ECE10000800000200D0A000049
:1031E0002D2D2D2D2D2D2D2D2D2D2D2D2D2D2D2D0F
:1031F0002D2D2D2D2D2D2D2D55534D415254205615
:10320000332E312D2D2D2D2D2D2D2D2D2D2D2D2DE3
:103210002D2D2D2D2D2D2D2D2D2D2D200D0A000088
:103220002020202055534D415254CAC7D3C9414C88
:1032300049454E54454BBFAAB7A2B5C4D2BBB8F658
:10324000C1E9C7C9B5C4B4AEBFDAB5F7CAD4BBA526
:10325000BDBBD7E9BCFE2CCDA8B9FD200D0A0000EE
:10326000CBFC2CC4E3BFC9D2D4CDA8B9FDB4AEBF4A
:10327000DAD6FACAD6B5F7D3C3B3CCD0F2C0EFC30F
:10328000E6B5C4C8CEBACEBAAFCAFD2CB2A2D6B487
:10329000D0D02ED2F2B4CB2CC4E3BFC90D0A0000AB
:1032A000D2D4CBE6D2E2B8FCB8C4BAAFCAFDB5C43A
:1032B000CAE4C8EBB2CECAFD28D6A7B3D6CAFDD79A
:1032C000D62831302F3136BDF8D6C629A1A2D7D69F
:1032D000B7FBB4AEA1A2BAAFCAFDC8EB0D0A00009D
:1032E000BFDAB5D8D6B7B5C8D7F7CEAAB2CECAFD21
:1032F000292CB5A5B8F6BAAFCAFDD7EEB6E0D6A769
:10330000B3D63130B8F6CAE4C8EBB2CECAFD2CB29F
:10331000A2D6A7B3D6BAAFCAFDB7B5200D0A000032
:10332000BBD8D6B5CFD4CABE2ED0C2D4F6B2CECA80
:10333000FDCFD4CABEBDF8D6C6C9E8D6C3B9A6C4A7
:10334000DC2CD0C2D4F6BDF8D6C6D7AABBBBB9A672
:10335000C4DC2E0D0A000000BCBCCAF5D6A7B3D64B
:103360003A7777772E6F70656E6564762E636F6D32
:103370000D0A000055534D415254D3D037B8F6CF03
:10338000B5CDB3C3FCC1EE3A0D0A00003F3A202090
:1033900020202020BBF1C8A1B0EFD6FAD0C5CFA223
:1033A0000D0A000068656C703A202020BBF1C8A1AE
:1033B000B0EFD6FAD0C5CFA20D0A00006C697374C5
:1033C0003A202020BFC9D3C3B5C4BAAFCAFDC1D00B
:1033D000B1ED0D0A0A00000069643A202020202087
:1033E000BFC9D3C3BAAFCAFDB5C44944C1D0B1ED5A
:1033F0000D0A0A006865783A20202020B2CECAFD66
:103400003136BDF8D6C6CFD4CABE2CBAF3B8FABF8F
:10341000D5B8F12BCAFDD7D6BCB4D6B4D0D0BDF840
:10342000D6C6D7AABBBB0D0A0A0000006465633A82
:1034300020202020B2CECAFD3130BDF8D6C6CFD470
:10344000CABE2CBAF3B8FABFD5B8F12BCAFDD7D68D
:10345000BCB4D6B4D0D0BDF8D6C6D7AABBBB0D0A73
:103460000A00000072756E74696D653A312CBFAA4E
:10347000C6F4BAAFCAFDD4CBD0D0BCC6CAB13B30BB
:103480002CB9D8B1D5BAAFCAFDD4CBD0D0BCC6CA3E
:10349000B13B0D0A0A000000C7EBB0B4D5D5B3CCE0
:1034A000D0F2B1E0D0B4B8F1CABDCAE4C8EBBAAF4B
:1034B000CAFDC3FBBCB0B2CECAFDB2A2D2D4BBD847
:1034C000B3B5BCFCBDE1CAF82E0D0A002D2D2D2D83
:1034D0002D2D2D2D2D2D2D2D2D2D2D2D2D2D2D2D1C
:1034E0002D2D2D2D2D2D414C49454E54454B2D2D27
:1034F0002D2D2D2D2D2D2D2D2D2D2D2D2D2D2D2DFC
:103500002D2D2D2D2D2D2D200D0A00002D2D2D2D95
:103510002D2D2D2D2D2D2D2D2D2D2D2D2D2D2D2DDB
:103520002D2D2D2D2DBAAFCAFDC7E5B5A52D2D2DFD
:103530002D2D2D2D2D2D2D2D2D2D2D2D2D2D2D2DBB
:103540002D2D2D2D2D2D2D2D200D0A00E4000020D8
:1035500025730D0A0000000059A0FCF7E3FE0020CF
:103560000B901AE0664909689DF82C2001EBC20116
:1035700001AB02AA486803A9FFF7D8FA60480068BF
:103580009DF82C1050F8312003A95EA0FCF7CAFE6C
:103590009DF82C00401CC0B20B905948007D9DF84E
:1035A0002C108842DEDCAFF2CC30FCF7BBFE83E0AF
:1035B000AFF2D830FCF7B6FE0BAA03A92046FFF7FE
:1035C00035FA9DF82C00C8B9694603A8FFF7E1FC5D
:1035D0000B909DF82C0020B94FA00099FCF7A2FE9B
:1035E0000EE09DF82C00042801D002206BE54DA0D0
:1035F000FCF798FE01204249C87501E0022062E50F
:1036000047A0FCF78FFE57E045A0FCF78BFE0BAA06
:1036100003A92046FFF70AFA9DF82C00C8B96946AD
:1036200003A8FFF7B6FC0B909DF82C0020B942A030
:103630000099FCF777FE0EE09DF82C00042801D0DD
:10364000022040E53FA0FCF76DFE00202C49C87524
:1036500001E0022037E532A0FCF764FE2CE030A048
:10366000FCF760FE0BAA03A92046FFF7DFF99DF8DF
:103670002C00C8B9694603A8FFF78BFC0B909DF896
:103680002C0078B91E49009881F8EC00084690F8A3
:10369000EC0018B130A0FCF745FE07E035A0FCF7C0
:1036A00041FE03E002200EE502200CE51CA0FCF721
:1036B00039FE01E0012006E500BF002003E500001F
:1036C0002D2D2D2D2D2D2D2D2D2D2D2D2D2D2D2D2A
:1036D0002D2D2D2D2D2D2D2D2DBAAFCAFD20494478
:1036E000202D2D2D2D2D2D2D2D2D2D2D2D2D2D2D17
:1036F0002D2D2D2D2D2D2D2D2D2D2D2D200D0A0077
:10370000E400002025732069642069733A0D0A30B3
:1037100058253038580D0A004845583A3058255831
:103720000D0A00003136BDF8D6C6B2CECAFDCFD4E0
:10373000CABE210D0A0000004445433A256C750DB0
:103740000A0000003130BDF8D6C6B2CECAFDCFD4D3
:10375000CABE210D0A00000052756E2054696D65C5
:103760002043616C63756C6174696F6E204F4E0D00
:103770000A00000052756E2054696D652043616C2B
:1037800063756C6174696F6E204F46460D0A0000C8
:1037900001607047D6C700000400040009800E7E57
:1037A00035C41E482530080013F0222003E0022013
:1037B00002E003200020C4DC000000800C800890A0
:1037C00012E022803C8804701A801C9024E01A8049
:1037D0002284264C04300000B9E200000000018081
:1037E000011001300540010001F81E8002800480B4
:1037F0000C8208821046607C0000B8D00000008077
:10380000009000E00F8009500E5013A01D201750AB
:10381000218C40881424131000F00000B4B0000084
:103820000000010000FC1F0E2660090002000FF0DE
:1038300009100AD00D900A900CF00B300000C1B1B5
:1038400000000000018811FC1E083230250018A07D
:103850000FD00490089008F000A0010001000000C3
:10386000B5E3000000000180011001E0010001004B
:103870000FF00420042007C00008224C224620003C
:103880000000CAAE000001000180008000800080BE
:1038900003FC3C800080008000800080010001006B
:1038A00000000000D7D600000100008000F80F1CC7
:1038B00010E01740008000BC7FC0008000800080C6
:1038C000008001800000A3AC0000000000000000A8
:1038D00000000000000000000000000000000000E8
:1038E0003000300010002000D6B10000018001003F
:1038F00001700F80020007E0042007200420072049
:1039000007C0044007FE38000000D6C100000000D8
:10391000007007800100022004300FD001800100F8
:1039200007E0010001087FF600000000BDE1000093
:103930000000042008200820122E25F03820123C18
:103940003C40023C0CC47088007000000000CAF8C3
:1039500000000100010001C0070001F01F20094024
:103960000F800B0005C00930111C6100010001002F
:10397000C7BF0000000000001EFC048804F03820CF
:10398000202C21F43D2808F00828083C2BC41800FE
:103990000000D7D4000001000100020002600DB059
:1039A00008100810071008100790081008D00730FA
:1039B00000200000CAD60000000000E00300010063
:1039C00000E00380008003FE3C80008000800080D7
:1039D000018003000000BFAA00000000000003F007
:1039E00006400240024C7FF004400440044008407E
:1039F0000840104000000000B9D80000002000205E
:103A00000640024000E00700010003FC1D000280A8
:103A1000024004200838101E0000C4EA0000020022
:103A2000020005E00680189007E0048004FE3F8055
:103A3000008000800080008000800080D4C20000F0
:103A40000000007007B00220022003A0042004A0A0
:103A50000720042008200820106020200000C8D57E
:103A600000000000000000F00F300820042005A036
:103A700006200820082009A00660002000000000A1
:103A8000CAB100000000003000203C20242027FCA8
:103A900024203D2024A024103C102410006000208D
:103AA0000000B7D6000003000080048004400C2012
:103AB0000818101E27E01A2004400440084011C0D6
:103AC00001800000C3EB0000000002200620182047
:103AD00004261CA028A80F281810281048200840E9
:103AE000008001000000B9E2000000000C00000CA2
:103AF0000000CC0000C40000640080240080150099
:103B000000040000C40000FC01F00B00601A00007B
:103B10001B0000090000090080090080080040081F
:103B20000460080420080C10300E08F007000000A4
:103B3000C7BF00000000000000804001CFE002C8C5
:103B4000400088400088C000870001830006030011
:103B50000402600407B0041A200F92200C9240085F
:103B60008F800082000082400082600083A001BE3E
:103B700030073030030010000000A3BA000000003E
:103B800000000000000000000000000000006000D5
:103B90000060000060000060000000000000000005
:103BA000000000000000600000600000E000006015
:103BB0000000000000000000000000000000000005
:103BC00000000000D6C70000000000000000000058
:103BD00000000000000000000001E0000000000103
:103BE000E00000000001E00000000001C000000053
:103BF00000038000000000038180000000030FC06C
:103C0000000000067E000780000FF0187FE0000C27
:103C1000701FE1F00018700C01E00030700E01C060
:103C2000004063E6038000007F8603800003F806FF
:103C30000300003FE00607000FF8C007FF80078180
:103C4000CF0780000001C7820000000187800000CC
:103C50000003818000000007000000000006000F44
:103C60008000000C00FFE00000187F03E00000303F
:103C70007001E00000407001E00001803001C000F0
:103C800000003001C000000030F9C00000003FE13A
:103C9000C00000003001C00000003001C000000082
:103CA0003001C00000003001C00000003001C00041
:103CB000000031F9C00000003FF7C00000003003F1
:103CC000C00000003003C00000002003800000009E
:103CD0000001800000000001000000000000000062
:103CE000000000000000C4DC000000000000000034
:103CF00000000000000000000000000000000000C4
:103D0000000000C00000000700F000000007807005
:103D10000000000780700000000780700000000FA6
:103D200000606000000E0060F000001C0061F00008
:103D300000186063C0000030706E000000303878FA
:103D4000000000603C60020000C03C60020001878F
:103D5000DC60060003FE0C60060003F80C700E0029
:103D600003C0003FFE000100003FFE000003E00F23
:103D7000F80000FFF0000000006070E0000000604C
:103D80007070000000606070300000606070700053
:103D9000007F6070F80000606061F00000606067A4
:103DA00080000040606E000000406078000000DE8F
:103DB0006060000000FE7060004000C07060004065
:103DC00000C07060004001C07060006001C0707091
:103DD00000E00386F07801E00383F03E07E0038112
:103DE000E01FFFE00100E00FFF800000C0000000C6
:103DF00000000000000000000000000000000000C3
:103E00000000000000000000B9E200000000000017
:103E100000000000000000000000000000000000A2
:103E20000000000007000000000007C000000000C4
:103E300003C00000000003C0000000000380C000B9
:103E400000000380E00000000381F0000000038117
:103E5000F80000000383E000000383878000000374
:103E6000C38E00000001C39C00000001C3B000002D
:103E70000000C380000000000380000000000380F9
:103E8000F0000000039FFC0000000FFFFC00000793
:103E9000FFE0000000FFF0E00000007E387000004E
:103EA00000003C70000000003C70000000007860E2
:103EB00000000000706000000000E06000000000F2
:103EC000E06000000001C06000000003806000109E
:103ED000000780600010000700600010000E006006
:103EE0000010001C006000300038006000380070D6
:103EF0000070007800E0003800F80180003FFFF813
:103F00000600001FFFF00800000FFFC000000000C7
:103F10007000000000000000000000000000000031
:103F200000000000000000000000B8D00000000009
:103F30000000000000000000000000000000000081
:103F400003C00000000001C00000000001C1E0004B
:103F5000000000C1F000000000E07800000000E078
:103F600038000000006780000000007F8000000033
:103F700007F800000018FFB00000001FE03000004C
:103F8000000C00380000000C00182000000C0798FE
:103F90003000000C3F9C3800000CFC0C3800000C7A
:103FA000000E7000000C00066000001C0387E0009B
:103FB00000181FC3C000001BFFC3C000003B838369
:103FC000800000338307C00000318306E0200061D9
:103FD000878C70200061FF18386000C0E0301E60E0
:103FE00001C080400FE00380060007E00200078068
:103FF00001E0040003C00070081101C01C00003182
:1040000080C01F800070C0000FC00070E00103C0BE
:1040100000E0700081C000E03800C0C000E03E0059
:10402000E00000C01FFFF000008007FFF800000064
:1040300001FFE000000000000000000000000000A0
:10404000000000000000000000000000B4B000000C
:104050000000000000000000000000000000000060
:1040600000001F00000000000F800000000007801B
:10407000000000000380000000000080FF000040FE
:10408000007FFF800061FFE007C000FF800007E0C5
:1040900000E040000FF001C070380F0003C0781E30
:1040A00018000380F00F00000380E0078000030188
:1040B0008E03000000030F00000000060F800000C8
:1040C00000001E0000000000380000000000700F1B
:1040D000C0000010C1FFF000001FFF81F000000EC3
:1040E0000600F000000C0700E000000C0E00E000ED
:1040F000000C0C78E000000C1FFCE000000C303CD1
:10410000E000000C6070E000000C8CE0E000000CAF
:1041100007C0E000000C03C0E000000C07E0E00076
:10412000000C1CE0E000000C3820E000000CC00097
:10413000E000001C01FFE000001FFFFFE000001F87
:10414000F801E000000C0001E00000080001C000E0
:1041500000000000C000000000008000000000001F
:104160000000000000000000000000000000C1B1DD
:10417000000000000000000000008080C0E0E0E0DF
:10418000E0600000000000000000000000000000EF
:10419000000000000000000000000000000000001F
:1041A000000000000000000307FF0F03838181C0AF
:1041B000E070380C060000F8F0707070303038385D
:1041C0003838181000000000000000000000000057
:1041D00000000C7CF8F0E000F07F0000030707030C
:1041E0000170F0E0E0E0E0FFE3E0E0E0E0E0E0E0EC
:1041F000E0E0E0E0E060606060606060200000009F
:1042000000000000000000F8FF0000007CF8F0C093
:1042100080000100E0F8FF808080808080808084C2
:10422000FCF0E0E0400000000000000000000000A2
:104230000000000000183EFFFCF8F81C0403010316
:10424000030000000003070707030303030303033E
:104250000303010000000000000000000000000057
:104260000000000000000000010301000000000049
:10427000000000000000000000000000000000003E
:10428000000000000000000000000000000000002E
:10429000000000000000000000000000000000001E
:1042A0003F400000000000000000300040003000EF
:1042B0004000000009000BC03D000BC03D0009009C
:1042C00018C024407FE0224031800000180024C044
:1042D0001B000D803240018003801C4027401C8061
:1042E00007400040100060000000000000000000D7
:1042F0000000000000001F802040402000004020FF
:1043000020401F8000000000090006001F800600FA
:1043100009000000040004003F80040004000000C5
:104320000010006000000000000000000400040015
:104330000400040004000000000000400000000031
:1043400000000000002001C006003800400000000E
:104350001F802040204020401F80000000001040AF
:104360003FC000400000000018C02140224024400F
:104370001840000010802040244024401B80000092
:1043800002000D0011003FC0014000003C802440AD
:1043900024402440238000001F80244024403440D7
:1043A000038000003000200027C0380020000000FB
:1043B0001B802440244024401B8000001C0022C09D
:1043C000224022401F800000000000000840000042
:1043D0000000000000000000046000000000000079
:1043E000000004000A00110020804040090009007C
:1043F0000900090009000000000040402080110071
:104400000A000400180020002340240018000000C7
:104410001F802040274029401F400000004007C067
:1044200039000F0001C0004020403FC0244024401C
:104430001B8000001F802040204020403080000072
:1044400020403FC0204020401F80000020403FC04F
:1044500024402E4030C0000020403FC024402E00A9
:10446000300000000F001080204022403380020006
:1044700020403FC0040004003FC0204020402040B6
:104480003FC02040204000000060202020203FC08E
:104490002000200020403FC024400B0030C02040BE
:1044A00020403FC020400040004000C03FC03C00D2
:1044B00003C03C003FC0000020403FC00C40230030
:1044C0003FC020001F802040204020401F8000006F
:1044D00020403FC024402400180000001F802140DD
:1044E000214020E01FA0000020403FC024402600C3
:1044F00019C0004018C024402440224031800000F0
:10450000300020403FC020403000000020003F80AD
:10451000004000403F80200020003E0001C0070016
:1045200038002000380007C03C0007C038000000F9
:10453000204039C0060039C020400000200038402B
:1045400007C0384020000000304021C026403840DD
:1045500020C00000000000007FE04020402000005C
:10456000000070000C0003800040000000004020AC
:1045700040207FE0000000000000200040002000FC
:1045800000000000001000100010001000100010CB
:104590000000000040000000000000000000028059
:1045A0000540054003C0004020003FC004400440D7
:1045B0000380000000000380044004400640000027
:1045C00000000380044024403FC0004000000380FE
:1045D0000540054003400000000004401FC0244087
:1045E00024402000000002E0055005500650042041
:1045F00020403FC00440040003C0004000000440CD
:1046000027C000400000000000100010041027E048
:104610000000000020403FC00140070004C00440EB
:10462000204020403FC000400040000007C0040080
:1046300007C0040003C00000044007C00440040099
:1046400003C00040000003800440044003800000D9
:10465000041007F0045004400380000000000380B1
:104660000440045007F00010044007C0024004005A
:1046700004000000000006400540054004C00000A2
:10468000000004001F800440004000000400078078
:104690000040044007C000400400070004C001803F
:1046A00006000400060001C0070001C0060000006B
:1046B000044006C0010006C00440000004100710BA
:1046C00004E00180060004000000044005C006402C
:1046D000044000000000000004007BE040200000D7
:1046E000000000000000FFF000000000000040207B
:1046F0007BE004000000000040008000400020003B
:104700002000400000000000000000000000000049
:10471000000000000000000000001FCC000C0000A2
:1047200000000000000008003000600008003000B9
:1047300060000000022003FC1E20022003FC1E205B
:104740000220000000000E1811043FFF10840C78B6
:10475000000000000F0010840F3800C00778188494
:104760000078000000780F8410C411240E9800E433
:1047700000840008080068007000000000000000CD
:104780000000000000000000000007E018182004EE
:1047900040020000000040022004181807E000005A
:1047A000000000000240024001800FF00180024042
:1047B000024000000080008000800FF80080008030
:1047C000008000000001000D000E0000000000004D
:1047D0000000000000000080008000800080008059
:1047E000008000800000000C000C000000000000B1
:1047F00000000000000000060018006001800600B4
:1048000018002000000007F0080810041004080831
:1048100007F000000000080408041FFC0004000466
:104820000000000000000E0C10141024104411842D
:104830000E0C000000000C18100411041104128862
:104840000C700000000000E00320042408241FFC7A
:104850000024000000001F98108411041104108827
:1048600010700000000007F0088811041104188877
:104870000070000000001C00100010FC13001C0061
:104880001000000000000E38114410841084114400
:104890000E38000000000700088C104410440888FF
:1048A00007F00000000000000000030C030C0000F3
:1048B00000000000000000000001010600000000F0
:1048C00000000000000000800140022004100808E1
:1048D00010040000022002200220022002200220F8
:1048E000022000000000100408080410022001400B
:1048F0000080000000000E001200100C106C1080F0
:104900000F00000003E00C1813E4142417C4082857
:1049100007D000000004003C03C41C40074000E432
:10492000001C000410041FFC1104110411040E8863
:104930000070000003E00C181004100410041008AC
:104940001C10000010041FFC1004100410040808C0
:1049500007F0000010041FFC1104110417C4100418
:104960000818000010041FFC1104110017C01000EB
:104970000800000003E00C181004100410441C7818
:104980000040000010041FFC108400800080108490
:104990001FFC10040000100410041FFC100410047D
:1049A0000000000000030001100110011FFE1000B4
:1049B0001000000010041FFC110403801464181C74
:1049C0001004000010041FFC100400040004000484
:1049D000000C000010041FFC1F0000FC1F001FFC47
:1049E0001004000010041FFC0C04030000E0101869
:1049F0001FFC100007F00808100410041004080839
:104A000007F0000010041FFC10841080108010803C
:104A10000F00000007F0081810241024101C080ACA
:104A200007F2000010041FFC1104110011C0113026
:104A30000E0C000400000E1C11041084108410449D
:104A40001C3800001800100010041FFC1004100097
:104A50001800000010001FF81004000400041004E7
:104A60001FF8100010001E0011E0001C00701380E1
:104A70001C0010001FC0103C00E01F0000E0103CB4
:104A80001FC000001004180C163401C001C01634F9
:104A9000180C100410001C00130400FC13041C006C
:104AA000100000000804101C1064108413041C047F
:104AB000101800000000000000007FFE40024002CD
:104AC00040020000000030000C0003800060001C69
:104AD0000003000000004002400240027FFE000090
:104AE00000000000000000002000400040004000E6
:104AF0002000000000010001000100010001000190
:104B00000001000100004000400020000000000003
:104B10000000000000000098012401440144014409
:104B200000FC000410001FFC008801040104008840
:104B300000700000000000700088010401040104FE
:104B400000880000000000700088010401041108C2
:104B50001FFC0004000000F801440144014401442A
:104B600000C800000000010401040FFC110411043E
:104B700011001800000000D601290129012901C9EE
:104B80000106000010041FFC008401000100010464
:104B900000FC000400000104190419FC00040004D6
:104BA000000000000000000300010101190119FECE
:104BB0000000000010041FFC0024004001B4010CA0
:104BC000010400000000100410041FFC0004000495
:104BD00000000000010401FC0104010001FC0104CB
:104BE000010000FC010401FC00840100010001043B
:104BF00000FC0004000000F80104010401040104A9
:104C000000F80000010101FF008501040104008893
:104C1000007000000000007000880104010401051C
:104C200001FF00010104010401FC008401040100F2
:104C300001800000000000CC012401240124012493
:104C40000198000000000100010007F801040104C0
:104C500000000000010001F8000400040004010845
:104C600001FC0004010001800170000C00100160D3
:104C70000180010001F0010C003001C00030010C86
:104C800001F0010000000104018C00740170018C2E
:104C900001040000010101810171000E0018016092
:104CA0000180010000000184010C013401440184F1
:104CB000010C0000000000000000000001003EFCAC
:104CC000400240020000000000000000FFFF000062
:104CD000000000000000400240023EFC0100000015
:104CE00000000000000060008000800040004000E4
:104CF000200020001F1C1F1E1F1E1F1F1E1F1E1F07
:104D000000030306010406020500030530313233B7
:104D100034353637383941424344454640305800EF
:104D20003031323334353637383961626364656621
:104D3000403078000400000800000000000000027D
:104D400000010000100000003F00000064656300E7
:104D50006964000072756E74696D650068656C70D9
:104D6000000000006C697374000000006865780042
:104D7000766F69642053686F775F485A32345F53A7
:104D80007472696E675F4E6F74424B2875313620BE
:104D900058706F732C207531362059706F732C202A
:104DA0007538202A737472696E672900766F69649A
:104DB0002053686F775F485A34385F537472696E56
:104DC000675F4E6F74424B287531362058706F7391
:104DD0002C207531362059706F732C207538202A9D
:104DE000737472696E672900766F696420777269DF
:104DF00074655F6164647228753332206164647223
:104E00002C7533322076616C29000000766F69645E
:104E10002053686F775F4E756D2875313620587056
:104E20006F732C207531362059706F732C207533B9
:104E300032206E756D290000753332207265616411
:104E40005F61646472287533322061646472290082
:104E5000766F6964204C43445F436C6561722875CA
:104E6000313620636F6C6F7229000000766F6964C1
:104E70002064656C61795F6D7328753136206E6DC5
:104E800073290000766F6964204C43445F4472616B
:104E90007752656374616E676C652875313620588A
:104EA000706F73302C207531362059706F73302C31
:104EB000207531362058706F732C2075313620598B
:104EC000706F732900000000766F6964204C4344C2
:104ED0005F447261774C696E652875313620587071
:104EE0006F73302C207531362059706F73302C2041
:104EF0007531362058706F732C20753136205970FB
:104F00006F732900244F000800000020D801000022
:104F10006C010008A84F0008D801002040070000DD
:104F2000C80100081184A24A0468090102030406AA
:104F30000708090C6910C502040608034AFFFF139D
:104F4000484D1B085C041A64041A50041A6C041AB5
:104F50004C041A540413F9251408384E14089137D8
:104F60001B08E8101A09101A6C1013111E1B087088
:104F7000101A85081AAC0813650D1B08C8181351C0
:104F80000E1B0884081AF9181A0C081BA50C5419D2
:104F900008229C1420592E1408A926140859271BEE
:084FA00008C10C19E502DC0157
:0400000508000131BD
:00000001FF
